{
  "contractName": "DebitaV1",
  "abi": [
    {
      "inputs": [],
      "stateMutability": "nonpayable",
      "type": "constructor"
    },
    {
      "inputs": [],
      "name": "notEnoughFunds",
      "type": "error"
    },
    {
      "inputs": [],
      "name": "requirementsNotFull",
      "type": "error"
    },
    {
      "anonymous": false,
      "inputs": [
        {
          "indexed": false,
          "internalType": "uint256",
          "name": "LenderID",
          "type": "uint256"
        },
        {
          "indexed": false,
          "internalType": "uint256",
          "name": "LoanId",
          "type": "uint256"
        }
      ],
      "name": "CollateralAccepted",
      "type": "event"
    },
    {
      "anonymous": false,
      "inputs": [
        {
          "indexed": false,
          "internalType": "uint256",
          "name": "id",
          "type": "uint256"
        },
        {
          "indexed": false,
          "internalType": "address",
          "name": "_owner",
          "type": "address"
        }
      ],
      "name": "CollateralOfferCreated",
      "type": "event"
    },
    {
      "anonymous": false,
      "inputs": [
        {
          "indexed": false,
          "internalType": "uint256",
          "name": "id",
          "type": "uint256"
        },
        {
          "indexed": false,
          "internalType": "address",
          "name": "_owner",
          "type": "address"
        }
      ],
      "name": "CollateralOfferDeleted",
      "type": "event"
    },
    {
      "anonymous": false,
      "inputs": [
        {
          "indexed": false,
          "internalType": "uint256",
          "name": "LenderID",
          "type": "uint256"
        },
        {
          "indexed": false,
          "internalType": "uint256",
          "name": "LoanId",
          "type": "uint256"
        }
      ],
      "name": "LenderAcepted",
      "type": "event"
    },
    {
      "anonymous": false,
      "inputs": [
        {
          "indexed": false,
          "internalType": "uint256",
          "name": "id",
          "type": "uint256"
        },
        {
          "indexed": false,
          "internalType": "address",
          "name": "_owner",
          "type": "address"
        }
      ],
      "name": "LenderOfferCreated",
      "type": "event"
    },
    {
      "anonymous": false,
      "inputs": [
        {
          "indexed": false,
          "internalType": "uint256",
          "name": "id",
          "type": "uint256"
        },
        {
          "indexed": false,
          "internalType": "address",
          "name": "_owner",
          "type": "address"
        }
      ],
      "name": "LenderOfferDeleted",
      "type": "event"
    },
    {
      "inputs": [
        {
          "internalType": "uint256",
          "name": "",
          "type": "uint256"
        }
      ],
      "name": "CollateralOffers",
      "outputs": [
        {
          "internalType": "address",
          "name": "wantedLenderToken",
          "type": "address"
        },
        {
          "internalType": "uint256",
          "name": "wantedLenderAmount",
          "type": "uint256"
        },
        {
          "internalType": "uint256",
          "name": "interest",
          "type": "uint256"
        },
        {
          "internalType": "uint256",
          "name": "timelap",
          "type": "uint256"
        },
        {
          "internalType": "uint256",
          "name": "paymentCount",
          "type": "uint256"
        },
        {
          "internalType": "bytes32",
          "name": "root",
          "type": "bytes32"
        },
        {
          "internalType": "address",
          "name": "owner",
          "type": "address"
        }
      ],
      "stateMutability": "view",
      "type": "function",
      "constant": true
    },
    {
      "inputs": [
        {
          "internalType": "uint256",
          "name": "",
          "type": "uint256"
        }
      ],
      "name": "LendersOffers",
      "outputs": [
        {
          "internalType": "address",
          "name": "LenderToken",
          "type": "address"
        },
        {
          "internalType": "uint256",
          "name": "LenderAmount",
          "type": "uint256"
        },
        {
          "internalType": "uint256",
          "name": "interest",
          "type": "uint256"
        },
        {
          "internalType": "uint256",
          "name": "timelap",
          "type": "uint256"
        },
        {
          "internalType": "uint256",
          "name": "paymentCount",
          "type": "uint256"
        },
        {
          "internalType": "bytes32",
          "name": "root",
          "type": "bytes32"
        },
        {
          "internalType": "address",
          "name": "owner",
          "type": "address"
        }
      ],
      "stateMutability": "view",
      "type": "function",
      "constant": true
    },
    {
      "inputs": [
        {
          "internalType": "uint256",
          "name": "",
          "type": "uint256"
        }
      ],
      "name": "Loans",
      "outputs": [
        {
          "internalType": "uint32",
          "name": "collateralOwnerID",
          "type": "uint32"
        },
        {
          "internalType": "uint32",
          "name": "LenderOwnerId",
          "type": "uint32"
        },
        {
          "internalType": "address",
          "name": "LenderToken",
          "type": "address"
        },
        {
          "internalType": "uint256",
          "name": "LenderAmount",
          "type": "uint256"
        },
        {
          "internalType": "uint256",
          "name": "timelap",
          "type": "uint256"
        },
        {
          "internalType": "uint256",
          "name": "paymentCount",
          "type": "uint256"
        },
        {
          "internalType": "uint256",
          "name": "paymentsPaid",
          "type": "uint256"
        },
        {
          "internalType": "uint256",
          "name": "paymentAmount",
          "type": "uint256"
        },
        {
          "internalType": "uint256",
          "name": "deadline",
          "type": "uint256"
        },
        {
          "internalType": "uint256",
          "name": "deadlineNext",
          "type": "uint256"
        },
        {
          "internalType": "bool",
          "name": "executed",
          "type": "bool"
        }
      ],
      "stateMutability": "view",
      "type": "function",
      "constant": true
    },
    {
      "inputs": [
        {
          "internalType": "uint256",
          "name": "",
          "type": "uint256"
        }
      ],
      "name": "claimeableDebt",
      "outputs": [
        {
          "internalType": "uint256",
          "name": "",
          "type": "uint256"
        }
      ],
      "stateMutability": "view",
      "type": "function",
      "constant": true
    },
    {
      "inputs": [
        {
          "internalType": "uint256",
          "name": "",
          "type": "uint256"
        }
      ],
      "name": "loansByNFt",
      "outputs": [
        {
          "internalType": "uint256",
          "name": "",
          "type": "uint256"
        }
      ],
      "stateMutability": "view",
      "type": "function",
      "constant": true
    },
    {
      "inputs": [
        {
          "internalType": "address",
          "name": "",
          "type": "address"
        },
        {
          "internalType": "address",
          "name": "",
          "type": "address"
        },
        {
          "internalType": "uint256[]",
          "name": "",
          "type": "uint256[]"
        },
        {
          "internalType": "uint256[]",
          "name": "",
          "type": "uint256[]"
        },
        {
          "internalType": "bytes",
          "name": "",
          "type": "bytes"
        }
      ],
      "name": "onERC1155BatchReceived",
      "outputs": [
        {
          "internalType": "bytes4",
          "name": "",
          "type": "bytes4"
        }
      ],
      "stateMutability": "nonpayable",
      "type": "function"
    },
    {
      "inputs": [
        {
          "internalType": "address",
          "name": "",
          "type": "address"
        },
        {
          "internalType": "address",
          "name": "",
          "type": "address"
        },
        {
          "internalType": "uint256",
          "name": "",
          "type": "uint256"
        },
        {
          "internalType": "uint256",
          "name": "",
          "type": "uint256"
        },
        {
          "internalType": "bytes",
          "name": "",
          "type": "bytes"
        }
      ],
      "name": "onERC1155Received",
      "outputs": [
        {
          "internalType": "bytes4",
          "name": "",
          "type": "bytes4"
        }
      ],
      "stateMutability": "nonpayable",
      "type": "function"
    },
    {
      "inputs": [
        {
          "internalType": "bytes4",
          "name": "interfaceId",
          "type": "bytes4"
        }
      ],
      "name": "supportsInterface",
      "outputs": [
        {
          "internalType": "bool",
          "name": "",
          "type": "bool"
        }
      ],
      "stateMutability": "view",
      "type": "function",
      "constant": true
    },
    {
      "inputs": [
        {
          "internalType": "address",
          "name": "_LenderToken",
          "type": "address"
        },
        {
          "internalType": "address[]",
          "name": "_wantedCollateralTokens",
          "type": "address[]"
        },
        {
          "internalType": "uint256[]",
          "name": "_wantedCollateralAmount",
          "type": "uint256[]"
        },
        {
          "internalType": "uint256",
          "name": "_LenderAmount",
          "type": "uint256"
        },
        {
          "internalType": "uint256",
          "name": "_interest",
          "type": "uint256"
        },
        {
          "internalType": "uint256",
          "name": "_timelap",
          "type": "uint256"
        },
        {
          "internalType": "uint256",
          "name": "_paymentCount",
          "type": "uint256"
        },
        {
          "internalType": "bytes32",
          "name": "_root",
          "type": "bytes32"
        }
      ],
      "name": "createLenderOption",
      "outputs": [],
      "stateMutability": "payable",
      "type": "function",
      "payable": true
    },
    {
      "inputs": [
        {
          "internalType": "uint256",
          "name": "id",
          "type": "uint256"
        }
      ],
      "name": "cancelLenderOffer",
      "outputs": [],
      "stateMutability": "nonpayable",
      "type": "function"
    },
    {
      "inputs": [
        {
          "internalType": "address",
          "name": "_wantedLenderToken",
          "type": "address"
        },
        {
          "internalType": "address[]",
          "name": "collateralTokens",
          "type": "address[]"
        },
        {
          "internalType": "uint256[]",
          "name": "collateralAmount",
          "type": "uint256[]"
        },
        {
          "internalType": "uint256",
          "name": "_wantedLenderAmount",
          "type": "uint256"
        },
        {
          "internalType": "uint256",
          "name": "_interest",
          "type": "uint256"
        },
        {
          "internalType": "uint256",
          "name": "_timelap",
          "type": "uint256"
        },
        {
          "internalType": "uint256",
          "name": "_paymentCount",
          "type": "uint256"
        },
        {
          "internalType": "bytes32",
          "name": "_root",
          "type": "bytes32"
        }
      ],
      "name": "createCollateralOffer",
      "outputs": [],
      "stateMutability": "payable",
      "type": "function",
      "payable": true
    },
    {
      "inputs": [
        {
          "internalType": "uint256",
          "name": "_id",
          "type": "uint256"
        }
      ],
      "name": "cancelCollateralOffer",
      "outputs": [],
      "stateMutability": "nonpayable",
      "type": "function"
    },
    {
      "inputs": [
        {
          "internalType": "uint256",
          "name": "_id",
          "type": "uint256"
        },
        {
          "internalType": "bytes32[]",
          "name": "proof",
          "type": "bytes32[]"
        }
      ],
      "name": "acceptCollateralOffer",
      "outputs": [],
      "stateMutability": "payable",
      "type": "function",
      "payable": true
    },
    {
      "inputs": [
        {
          "internalType": "uint256",
          "name": "id",
          "type": "uint256"
        },
        {
          "internalType": "bytes32[]",
          "name": "proof",
          "type": "bytes32[]"
        }
      ],
      "name": "acceptLenderOffer",
      "outputs": [],
      "stateMutability": "payable",
      "type": "function",
      "payable": true
    },
    {
      "inputs": [
        {
          "internalType": "uint256",
          "name": "id",
          "type": "uint256"
        }
      ],
      "name": "payDebt",
      "outputs": [],
      "stateMutability": "payable",
      "type": "function",
      "payable": true
    },
    {
      "inputs": [
        {
          "internalType": "uint256",
          "name": "id",
          "type": "uint256"
        }
      ],
      "name": "claimCollateralasLender",
      "outputs": [],
      "stateMutability": "nonpayable",
      "type": "function"
    },
    {
      "inputs": [
        {
          "internalType": "uint256",
          "name": "id",
          "type": "uint256"
        }
      ],
      "name": "claimCollateralasBorrower",
      "outputs": [],
      "stateMutability": "nonpayable",
      "type": "function"
    },
    {
      "inputs": [
        {
          "internalType": "address",
          "name": "_newAddress",
          "type": "address"
        }
      ],
      "name": "setNFTContract",
      "outputs": [],
      "stateMutability": "nonpayable",
      "type": "function"
    }
  ],
  "bytecode": "0x608060405234801561001057600080fd5b50336000806101000a81548173ffffffffffffffffffffffffffffffffffffffff021916908373ffffffffffffffffffffffffffffffffffffffff16021790555061548c806100606000396000f3fe6080604052600436106101095760003560e01c8063b359314a11610095578063dfebe44611610064578063dfebe44614610384578063e77595eb146103ad578063f23124ff146103c9578063f23a6e61146103e5578063fb18484d1461042257610109565b8063b359314a146102ab578063bc197c81146102e8578063cc2db6cf14610325578063cdab22531461036857610109565b80637ccc73d5116100dc5780637ccc73d5146101b95780637dea9a63146101f6578063881ae4611461021f57806389b279e71461023b578063a7ccabdf1461028257610109565b806301ffc9a71461010e57806316fc32971461014b5780634b56c2e214610167578063541b5eff14610190575b600080fd5b34801561011a57600080fd5b506101356004803603810190610130919061422a565b610465565b6040516101429190614272565b60405180910390f35b610165600480360381019061016091906142c3565b6104df565b005b34801561017357600080fd5b5061018e600480360381019061018991906142c3565b610a7d565b005b34801561019c57600080fd5b506101b760048036038101906101b291906142c3565b6110bd565b005b3480156101c557600080fd5b506101e060048036038101906101db91906142c3565b6116ef565b6040516101ed91906142ff565b60405180910390f35b34801561020257600080fd5b5061021d600480360381019061021891906142c3565b611707565b005b610239600480360381019061023491906144a9565b611aa1565b005b34801561024757600080fd5b50610262600480360381019061025d91906142c3565b61270b565b6040516102799b9a99989796959493929190614565565b60405180910390f35b34801561028e57600080fd5b506102a960048036038101906102a4919061463c565b6127b2565b005b3480156102b757600080fd5b506102d260048036038101906102cd91906142c3565b61284e565b6040516102df91906142ff565b60405180910390f35b3480156102f457600080fd5b5061030f600480360381019061030a91906147e1565b612866565b60405161031c91906148bf565b60405180910390f35b34801561033157600080fd5b5061034c600480360381019061034791906142c3565b61287b565b60405161035f97969594939291906148e9565b60405180910390f35b610382600480360381019061037d91906144a9565b6128fd565b005b34801561039057600080fd5b506103ab60048036038101906103a691906142c3565b61340a565b005b6103c760048036038101906103c29190614a1b565b613832565b005b6103e360048036038101906103de9190614a1b565b613b18565b005b3480156103f157600080fd5b5061040c60048036038101906104079190614b09565b613ed8565b60405161041991906148bf565b60405180910390f35b34801561042e57600080fd5b50610449600480360381019061044491906142c3565b613eed565b60405161045c97969594939291906148e9565b60405180910390f35b60007f4e2312e0000000000000000000000000000000000000000000000000000000007bffffffffffffffffffffffffffffffffffffffffffffffffffffffff1916827bffffffffffffffffffffffffffffffffffffffffffffffffffffffff191614806104d857506104d782613f6f565b5b9050919050565b600060076000838152602001908152602001600020604051806101a00160405290816000820160009054906101000a900463ffffffff1663ffffffff1663ffffffff1681526020016000820160049054906101000a900463ffffffff1663ffffffff1663ffffffff1681526020016000820160089054906101000a900473ffffffffffffffffffffffffffffffffffffffff1673ffffffffffffffffffffffffffffffffffffffff1673ffffffffffffffffffffffffffffffffffffffff168152602001600182015481526020016002820180548060200260200160405190810160405280929190818152602001828054801561063157602002820191906000526020600020905b8160009054906101000a900473ffffffffffffffffffffffffffffffffffffffff1673ffffffffffffffffffffffffffffffffffffffff16815260200190600101908083116105e7575b505050505081526020016003820180548060200260200160405190810160405280929190818152602001828054801561068957602002820191906000526020600020905b815481526020019060010190808311610675575b50505050508152602001600482015481526020016005820154815260200160068201548152602001600782015481526020016008820154815260200160098201548152602001600a820160009054906101000a900460ff16151515158152505090506000600460009054906101000a900473ffffffffffffffffffffffffffffffffffffffff1690504282610140015110806107a4575060018173ffffffffffffffffffffffffffffffffffffffff1662fdd58e3385600001516040518363ffffffff1660e01b8152600401610760929190614bdb565b602060405180830381865afa15801561077d573d6000803e3d6000fd5b505050506040513d601f19601f820116820180604052508101906107a19190614c19565b14155b806107b757508160e00151826101000151145b806107cb5750600115158261018001511515145b156107d557600080fd5b600073ffffffffffffffffffffffffffffffffffffffff16826040015173ffffffffffffffffffffffffffffffffffffffff16036108245781610120015134101561081f57600080fd5b6108b5565b6000826040015190508073ffffffffffffffffffffffffffffffffffffffff166323b872dd33308661012001516040518463ffffffff1660e01b815260040161086f93929190614c46565b6020604051808303816000875af115801561088e573d6000803e3d6000fd5b505050506040513d601f19601f820116820180604052508101906108b29190614ca9565b50505b81610120015160096000846020015163ffffffff16815260200190815260200160002060008282546108e79190614d05565b92505081905550600182610100018181516109029190614d05565b915081815250508160c0015182610160018181516109209190614d05565b91508181525050816007600085815260200190815260200160002060008201518160000160006101000a81548163ffffffff021916908363ffffffff16021790555060208201518160000160046101000a81548163ffffffff021916908363ffffffff16021790555060408201518160000160086101000a81548173ffffffffffffffffffffffffffffffffffffffff021916908373ffffffffffffffffffffffffffffffffffffffff1602179055506060820151816001015560808201518160020190805190602001906109f6929190614088565b5060a0820151816003019080519060200190610a13929190614112565b5060c0820151816004015560e08201518160050155610100820151816006015561012082015181600701556101408201518160080155610160820151816009015561018082015181600a0160006101000a81548160ff021916908315150217905550905050505050565b600060076000838152602001908152602001600020604051806101a00160405290816000820160009054906101000a900463ffffffff1663ffffffff1663ffffffff1681526020016000820160049054906101000a900463ffffffff1663ffffffff1663ffffffff1681526020016000820160089054906101000a900473ffffffffffffffffffffffffffffffffffffffff1673ffffffffffffffffffffffffffffffffffffffff1673ffffffffffffffffffffffffffffffffffffffff1681526020016001820154815260200160028201805480602002602001604051908101604052809291908181526020018280548015610bcf57602002820191906000526020600020905b8160009054906101000a900473ffffffffffffffffffffffffffffffffffffffff1673ffffffffffffffffffffffffffffffffffffffff1681526020019060010190808311610b85575b5050505050815260200160038201805480602002602001604051908101604052809291908181526020018280548015610c2757602002820191906000526020600020905b815481526020019060010190808311610c13575b50505050508152602001600482015481526020016005820154815260200160068201548152602001600782015481526020016008820154815260200160098201548152602001600a820160009054906101000a900460ff16151515158152505090506000600460009054906101000a900473ffffffffffffffffffffffffffffffffffffffff16905060018173ffffffffffffffffffffffffffffffffffffffff1662fdd58e3385602001516040518363ffffffff1660e01b8152600401610cf0929190614bdb565b602060405180830381865afa158015610d0d573d6000803e3d6000fd5b505050506040513d601f19601f82011682018060405250810190610d319190614c19565b141580610d42575042826101600151115b80610d5557508161010001518260e00151145b80610d695750600115158261018001511515145b15610d7357600080fd5b6001826101800190151590811515815250506000805b836080015151811015610eee57600073ffffffffffffffffffffffffffffffffffffffff1684608001518281518110610dc557610dc4614d5b565b5b602002602001015173ffffffffffffffffffffffffffffffffffffffff1603610e19578360a001518181518110610dff57610dfe614d5b565b5b602002602001015182610e129190614d05565b9150610edb565b600084608001518281518110610e3257610e31614d5b565b5b602002602001015190508073ffffffffffffffffffffffffffffffffffffffff1663a9059cbb338760a001518581518110610e7057610e6f614d5b565b5b60200260200101516040518363ffffffff1660e01b8152600401610e95929190614d8a565b6020604051808303816000875af1158015610eb4573d6000803e3d6000fd5b505050506040513d601f19601f82011682018060405250810190610ed89190614ca9565b50505b8080610ee690614db3565b915050610d89565b5060003373ffffffffffffffffffffffffffffffffffffffff1682604051610f1590614e2c565b60006040518083038185875af1925050503d8060008114610f52576040519150601f19603f3d011682016040523d82523d6000602084013e610f57565b606091505b5050905080610f6557600080fd5b836007600087815260200190815260200160002060008201518160000160006101000a81548163ffffffff021916908363ffffffff16021790555060208201518160000160046101000a81548163ffffffff021916908363ffffffff16021790555060408201518160000160086101000a81548173ffffffffffffffffffffffffffffffffffffffff021916908373ffffffffffffffffffffffffffffffffffffffff160217905550606082015181600101556080820151816002019080519060200190611034929190614088565b5060a0820151816003019080519060200190611051929190614112565b5060c0820151816004015560e08201518160050155610100820151816006015561012082015181600701556101408201518160080155610160820151816009015561018082015181600a0160006101000a81548160ff0219169083151502179055509050505050505050565b600060076000838152602001908152602001600020604051806101a00160405290816000820160009054906101000a900463ffffffff1663ffffffff1663ffffffff1681526020016000820160049054906101000a900463ffffffff1663ffffffff1663ffffffff1681526020016000820160089054906101000a900473ffffffffffffffffffffffffffffffffffffffff1673ffffffffffffffffffffffffffffffffffffffff1673ffffffffffffffffffffffffffffffffffffffff168152602001600182015481526020016002820180548060200260200160405190810160405280929190818152602001828054801561120f57602002820191906000526020600020905b8160009054906101000a900473ffffffffffffffffffffffffffffffffffffffff1673ffffffffffffffffffffffffffffffffffffffff16815260200190600101908083116111c5575b505050505081526020016003820180548060200260200160405190810160405280929190818152602001828054801561126757602002820191906000526020600020905b815481526020019060010190808311611253575b50505050508152602001600482015481526020016005820154815260200160068201548152602001600782015481526020016008820154815260200160098201548152602001600a820160009054906101000a900460ff16151515158152505090506000600460009054906101000a900473ffffffffffffffffffffffffffffffffffffffff16905060018173ffffffffffffffffffffffffffffffffffffffff1662fdd58e3385600001516040518363ffffffff1660e01b8152600401611330929190614bdb565b602060405180830381865afa15801561134d573d6000803e3d6000fd5b505050506040513d601f19601f820116820180604052508101906113719190614c19565b14158061138757508161010001518260e0015114155b8061139b5750600115158261018001511515145b156113a557600080fd5b6001826101800190151590811515815250506000805b83608001515181101561152057600073ffffffffffffffffffffffffffffffffffffffff16846080015182815181106113f7576113f6614d5b565b5b602002602001015173ffffffffffffffffffffffffffffffffffffffff160361144b578360a00151818151811061143157611430614d5b565b5b6020026020010151826114449190614d05565b915061150d565b60008460800151828151811061146457611463614d5b565b5b602002602001015190508073ffffffffffffffffffffffffffffffffffffffff1663a9059cbb338760a0015185815181106114a2576114a1614d5b565b5b60200260200101516040518363ffffffff1660e01b81526004016114c7929190614d8a565b6020604051808303816000875af11580156114e6573d6000803e3d6000fd5b505050506040513d601f19601f8201168201806040525081019061150a9190614ca9565b50505b808061151890614db3565b9150506113bb565b5060003373ffffffffffffffffffffffffffffffffffffffff168260405161154790614e2c565b60006040518083038185875af1925050503d8060008114611584576040519150601f19603f3d011682016040523d82523d6000602084013e611589565b606091505b505090508061159757600080fd5b836007600087815260200190815260200160002060008201518160000160006101000a81548163ffffffff021916908363ffffffff16021790555060208201518160000160046101000a81548163ffffffff021916908363ffffffff16021790555060408201518160000160086101000a81548173ffffffffffffffffffffffffffffffffffffffff021916908373ffffffffffffffffffffffffffffffffffffffff160217905550606082015181600101556080820151816002019080519060200190611666929190614088565b5060a0820151816003019080519060200190611683929190614112565b5060c0820151816004015560e08201518160050155610100820151816006015561012082015181600701556101408201518160080155610160820151816009015561018082015181600a0160006101000a81548160ff0219169083151502179055509050505050505050565b60086020528060005260406000206000915090505481565b600060056000838152602001908152602001600020604051806101200160405290816000820160009054906101000a900473ffffffffffffffffffffffffffffffffffffffff1673ffffffffffffffffffffffffffffffffffffffff1673ffffffffffffffffffffffffffffffffffffffff1681526020016001820180548060200260200160405190810160405280929190818152602001828054801561180357602002820191906000526020600020905b8160009054906101000a900473ffffffffffffffffffffffffffffffffffffffff1673ffffffffffffffffffffffffffffffffffffffff16815260200190600101908083116117b9575b505050505081526020016002820180548060200260200160405190810160405280929190818152602001828054801561185b57602002820191906000526020600020905b815481526020019060010190808311611847575b5050505050815260200160038201548152602001600482015481526020016005820154815260200160068201548152602001600782015481526020016008820160009054906101000a900473ffffffffffffffffffffffffffffffffffffffff1673ffffffffffffffffffffffffffffffffffffffff1673ffffffffffffffffffffffffffffffffffffffff168152505090503373ffffffffffffffffffffffffffffffffffffffff1681610100015173ffffffffffffffffffffffffffffffffffffffff161461192b57600080fd5b60056000838152602001908152602001600020600080820160006101000a81549073ffffffffffffffffffffffffffffffffffffffff0219169055600182016000611976919061415f565b6002820160006119869190614180565b600382016000905560048201600090556005820160009055600682016000905560078201600090556008820160006101000a81549073ffffffffffffffffffffffffffffffffffffffff021916905550506000816000015190508073ffffffffffffffffffffffffffffffffffffffff1663a9059cbb3384606001516040518363ffffffff1660e01b8152600401611a1f929190614d8a565b6020604051808303816000875af1158015611a3e573d6000803e3d6000fd5b505050506040513d601f19601f82011682018060405250810190611a629190614ca9565b507f4fdabcd35b35e29c6fe4511415d266adceadce0539b46a4b5d771b24d855de428333604051611a94929190614e41565b60405180910390a1505050565b600060056000848152602001908152602001600020604051806101200160405290816000820160009054906101000a900473ffffffffffffffffffffffffffffffffffffffff1673ffffffffffffffffffffffffffffffffffffffff1673ffffffffffffffffffffffffffffffffffffffff16815260200160018201805480602002602001604051908101604052809291908181526020018280548015611b9d57602002820191906000526020600020905b8160009054906101000a900473ffffffffffffffffffffffffffffffffffffffff1673ffffffffffffffffffffffffffffffffffffffff1681526020019060010190808311611b53575b5050505050815260200160028201805480602002602001604051908101604052809291908181526020018280548015611bf557602002820191906000526020600020905b815481526020019060010190808311611be1575b5050505050815260200160038201548152602001600482015481526020016005820154815260200160068201548152602001600782015481526020016008820160009054906101000a900473ffffffffffffffffffffffffffffffffffffffff1673ffffffffffffffffffffffffffffffffffffffff1673ffffffffffffffffffffffffffffffffffffffff16815250509050600073ffffffffffffffffffffffffffffffffffffffff1681610100015173ffffffffffffffffffffffffffffffffffffffff1603611cfc576040517f08c379a0000000000000000000000000000000000000000000000000000000008152600401611cf390614ec7565b60405180910390fd5b6000801b8160e0015114611d8b57600033604051602001611d1d9190614f2f565b6040516020818303038152906040528051906020012090506000611d46848460e0015184613fd9565b905080611d88576040517f08c379a0000000000000000000000000000000000000000000000000000000008152600401611d7f90614f96565b60405180910390fd5b50505b60056000848152602001908152602001600020600080820160006101000a81549073ffffffffffffffffffffffffffffffffffffffff0219169055600182016000611dd6919061415f565b600282016000611de69190614180565b600382016000905560048201600090556005820160009055600682016000905560078201600090556008820160006101000a81549073ffffffffffffffffffffffffffffffffffffffff021916905550506000805b826020015151811015611fa257600073ffffffffffffffffffffffffffffffffffffffff1683602001518281518110611e7757611e76614d5b565b5b602002602001015173ffffffffffffffffffffffffffffffffffffffff1603611ecb5782604001518181518110611eb157611eb0614d5b565b5b602002602001015182611ec49190614d05565b9150611f8f565b600083602001518281518110611ee457611ee3614d5b565b5b602002602001015190508073ffffffffffffffffffffffffffffffffffffffff166323b872dd333087604001518681518110611f2357611f22614d5b565b5b60200260200101516040518463ffffffff1660e01b8152600401611f4993929190614c46565b6020604051808303816000875af1158015611f68573d6000803e3d6000fd5b505050506040513d601f19601f82011682018060405250810190611f8c9190614ca9565b50505b8080611f9a90614db3565b915050611e3b565b5080341015611fe6576040517f08c379a0000000000000000000000000000000000000000000000000000000008152600401611fdd90615002565b60405180910390fd5b6002600460148282829054906101000a900463ffffffff166120089190615022565b92506101000a81548163ffffffff021916908363ffffffff1602179055506003600081548092919061203990614db3565b91905055506000600460009054906101000a900473ffffffffffffffffffffffffffffffffffffffff16905060005b600281101561227b578173ffffffffffffffffffffffffffffffffffffffff16631249c58b6040518163ffffffff1660e01b8152600401600060405180830381600087803b1580156120b957600080fd5b505af11580156120cd573d6000803e3d6000fd5b50505050600081036121b1578173ffffffffffffffffffffffffffffffffffffffff1663f242432a308661010001516001600460149054906101000a900463ffffffff1661211b919061505c565b60016040518563ffffffff1660e01b815260040161213c94939291906150ff565b600060405180830381600087803b15801561215657600080fd5b505af115801561216a573d6000803e3d6000fd5b50505050600354600860006001600460149054906101000a900463ffffffff16612194919061505c565b63ffffffff16815260200190815260200160002081905550612268565b8173ffffffffffffffffffffffffffffffffffffffff1663f242432a3033600460149054906101000a900463ffffffff1660016040518563ffffffff1660e01b815260040161220394939291906150ff565b600060405180830381600087803b15801561221d57600080fd5b505af1158015612231573d6000803e3d6000fd5b5050505060035460086000600460149054906101000a900463ffffffff1663ffffffff168152602001908152602001600020819055505b808061227390614db3565b915050612068565b506000808460c0015111156122cc5760648460800151606461229d9190614d05565b8560c0015186606001516122b19190615186565b6122bb91906151b7565b6122c59190615186565b90506122fb565b6064846080015160646122df9190614d05565b85606001516122ee91906151b7565b6122f89190615186565b90505b6000428560a001518660c0015161231291906151b7565b61231c9190614d05565b905060008560a00151426123309190614d05565b9050604051806101a00160405280600460149054906101000a900463ffffffff1663ffffffff1681526020016001600460149054906101000a900463ffffffff1661237b919061505c565b63ffffffff168152602001876000015173ffffffffffffffffffffffffffffffffffffffff1681526020018760600151815260200187602001518152602001876040015181526020018760a0015181526020018760c001518152602001600081526020018481526020018381526020018281526020016000151581525060076000600354815260200190815260200160002060008201518160000160006101000a81548163ffffffff021916908363ffffffff16021790555060208201518160000160046101000a81548163ffffffff021916908363ffffffff16021790555060408201518160000160086101000a81548173ffffffffffffffffffffffffffffffffffffffff021916908373ffffffffffffffffffffffffffffffffffffffff1602179055506060820151816001015560808201518160020190805190602001906124c8929190614088565b5060a08201518160030190805190602001906124e5929190614112565b5060c0820151816004015560e08201518160050155610100820151816006015561012082015181600701556101408201518160080155610160820151816009015561018082015181600a0160006101000a81548160ff021916908315150217905550905050600073ffffffffffffffffffffffffffffffffffffffff16866000015173ffffffffffffffffffffffffffffffffffffffff16036126385760003373ffffffffffffffffffffffffffffffffffffffff1687606001516040516125ac90614e2c565b60006040518083038185875af1925050503d80600081146125e9576040519150601f19603f3d011682016040523d82523d6000602084013e6125ee565b606091505b5050905080612632576040517f08c379a00000000000000000000000000000000000000000000000000000000081526004016126299061525d565b60405180910390fd5b506126c6565b6000866000015190508073ffffffffffffffffffffffffffffffffffffffff1663a9059cbb3389606001516040518363ffffffff1660e01b8152600401612680929190614d8a565b6020604051808303816000875af115801561269f573d6000803e3d6000fd5b505050506040513d601f19601f820116820180604052508101906126c39190614ca9565b50505b7fecc5d5618cab4a2c940ac2bffb27b92f1a6fc9f78baba03f62e70d34d5889516886003546040516126f992919061527d565b60405180910390a15050505050505050565b60076020528060005260406000206000915090508060000160009054906101000a900463ffffffff16908060000160049054906101000a900463ffffffff16908060000160089054906101000a900473ffffffffffffffffffffffffffffffffffffffff169080600101549080600401549080600501549080600601549080600701549080600801549080600901549080600a0160009054906101000a900460ff1690508b565b60008054906101000a900473ffffffffffffffffffffffffffffffffffffffff1673ffffffffffffffffffffffffffffffffffffffff163373ffffffffffffffffffffffffffffffffffffffff161461280a57600080fd5b80600460006101000a81548173ffffffffffffffffffffffffffffffffffffffff021916908373ffffffffffffffffffffffffffffffffffffffff16021790555050565b60096020528060005260406000206000915090505481565b600063bc197c8160e01b905095945050505050565b60066020528060005260406000206000915090508060000160009054906101000a900473ffffffffffffffffffffffffffffffffffffffff16908060030154908060040154908060050154908060060154908060070154908060080160009054906101000a900473ffffffffffffffffffffffffffffffffffffffff16905087565b600060066000848152602001908152602001600020604051806101200160405290816000820160009054906101000a900473ffffffffffffffffffffffffffffffffffffffff1673ffffffffffffffffffffffffffffffffffffffff1673ffffffffffffffffffffffffffffffffffffffff168152602001600182018054806020026020016040519081016040528092919081815260200182805480156129f957602002820191906000526020600020905b8160009054906101000a900473ffffffffffffffffffffffffffffffffffffffff1673ffffffffffffffffffffffffffffffffffffffff16815260200190600101908083116129af575b5050505050815260200160028201805480602002602001604051908101604052809291908181526020018280548015612a5157602002820191906000526020600020905b815481526020019060010190808311612a3d575b5050505050815260200160038201548152602001600482015481526020016005820154815260200160068201548152602001600782015481526020016008820160009054906101000a900473ffffffffffffffffffffffffffffffffffffffff1673ffffffffffffffffffffffffffffffffffffffff1673ffffffffffffffffffffffffffffffffffffffff16815250509050600073ffffffffffffffffffffffffffffffffffffffff1681610100015173ffffffffffffffffffffffffffffffffffffffff1603612b58576040517f08c379a0000000000000000000000000000000000000000000000000000000008152600401612b4f906152f2565b60405180910390fd5b6000801b8160e0015114612be757600033604051602001612b799190614f2f565b6040516020818303038152906040528051906020012090506000612ba2848460e0015184613fd9565b905080612be4576040517f08c379a0000000000000000000000000000000000000000000000000000000008152600401612bdb90614f96565b60405180910390fd5b50505b60066000848152602001908152602001600020600080820160006101000a81549073ffffffffffffffffffffffffffffffffffffffff0219169055600182016000612c32919061415f565b600282016000612c429190614180565b600382016000905560048201600090556005820160009055600682016000905560078201600090556008820160006101000a81549073ffffffffffffffffffffffffffffffffffffffff02191690555050600073ffffffffffffffffffffffffffffffffffffffff16816000015173ffffffffffffffffffffffffffffffffffffffff1603612dcd578060600151341015612d12576040517f08c379a0000000000000000000000000000000000000000000000000000000008152600401612d099061535e565b60405180910390fd5b600081610100015173ffffffffffffffffffffffffffffffffffffffff168260600151604051612d4190614e2c565b60006040518083038185875af1925050503d8060008114612d7e576040519150601f19603f3d011682016040523d82523d6000602084013e612d83565b606091505b5050905080612dc7576040517f08c379a0000000000000000000000000000000000000000000000000000000008152600401612dbe9061525d565b60405180910390fd5b50612e62565b6000816000015190508073ffffffffffffffffffffffffffffffffffffffff166323b872dd3384610100015185606001516040518463ffffffff1660e01b8152600401612e1c93929190614c46565b6020604051808303816000875af1158015612e3b573d6000803e3d6000fd5b505050506040513d601f19601f82011682018060405250810190612e5f9190614ca9565b50505b6002600460148282829054906101000a900463ffffffff16612e849190615022565b92506101000a81548163ffffffff021916908363ffffffff16021790555060036000815480929190612eb590614db3565b91905055506000600460009054906101000a900473ffffffffffffffffffffffffffffffffffffffff16905060005b60028110156130f7578173ffffffffffffffffffffffffffffffffffffffff16631249c58b6040518163ffffffff1660e01b8152600401600060405180830381600087803b158015612f3557600080fd5b505af1158015612f49573d6000803e3d6000fd5b5050505060008103613028578173ffffffffffffffffffffffffffffffffffffffff1663f242432a30336001600460149054906101000a900463ffffffff16612f92919061505c565b60016040518563ffffffff1660e01b8152600401612fb394939291906150ff565b600060405180830381600087803b158015612fcd57600080fd5b505af1158015612fe1573d6000803e3d6000fd5b50505050600354600860006001600460149054906101000a900463ffffffff1661300b919061505c565b63ffffffff168152602001908152602001600020819055506130e4565b8173ffffffffffffffffffffffffffffffffffffffff1663f242432a30856101000151600460149054906101000a900463ffffffff1660016040518563ffffffff1660e01b815260040161307f94939291906150ff565b600060405180830381600087803b15801561309957600080fd5b505af11580156130ad573d6000803e3d6000fd5b5050505060035460086000600460149054906101000a900463ffffffff1663ffffffff168152602001908152602001600020819055505b80806130ef90614db3565b915050612ee4565b506000808360c001511115613148576064836080015160646131199190614d05565b8460c00151856060015161312d9190615186565b61313791906151b7565b6131419190615186565b9050613177565b60648360800151606461315b9190614d05565b846060015161316a91906151b7565b6131749190615186565b90505b6000428460a001518560c0015161318e91906151b7565b6131989190614d05565b905060008460a00151426131ac9190614d05565b9050604051806101a00160405280600460149054906101000a900463ffffffff1663ffffffff1681526020016001600460149054906101000a900463ffffffff166131f7919061505c565b63ffffffff168152602001866000015173ffffffffffffffffffffffffffffffffffffffff1681526020018660600151815260200186602001518152602001866040015181526020018660a0015181526020018660c001518152602001600081526020018481526020018381526020018281526020016000151581525060076000600354815260200190815260200160002060008201518160000160006101000a81548163ffffffff021916908363ffffffff16021790555060208201518160000160046101000a81548163ffffffff021916908363ffffffff16021790555060408201518160000160086101000a81548173ffffffffffffffffffffffffffffffffffffffff021916908373ffffffffffffffffffffffffffffffffffffffff160217905550606082015181600101556080820151816002019080519060200190613344929190614088565b5060a0820151816003019080519060200190613361929190614112565b5060c0820151816004015560e08201518160050155610100820151816006015561012082015181600701556101408201518160080155610160820151816009015561018082015181600a0160006101000a81548160ff0219169083151502179055509050507fcdca6c5220447dd3cd9bcee8f4071e6d32a3a08fa497a11fd80630410bebd3d6876003546040516133f992919061527d565b60405180910390a150505050505050565b600060066000838152602001908152602001600020604051806101200160405290816000820160009054906101000a900473ffffffffffffffffffffffffffffffffffffffff1673ffffffffffffffffffffffffffffffffffffffff1673ffffffffffffffffffffffffffffffffffffffff1681526020016001820180548060200260200160405190810160405280929190818152602001828054801561350657602002820191906000526020600020905b8160009054906101000a900473ffffffffffffffffffffffffffffffffffffffff1673ffffffffffffffffffffffffffffffffffffffff16815260200190600101908083116134bc575b505050505081526020016002820180548060200260200160405190810160405280929190818152602001828054801561355e57602002820191906000526020600020905b81548152602001906001019080831161354a575b5050505050815260200160038201548152602001600482015481526020016005820154815260200160068201548152602001600782015481526020016008820160009054906101000a900473ffffffffffffffffffffffffffffffffffffffff1673ffffffffffffffffffffffffffffffffffffffff1673ffffffffffffffffffffffffffffffffffffffff168152505090503373ffffffffffffffffffffffffffffffffffffffff1681610100015173ffffffffffffffffffffffffffffffffffffffff1614613664576040517f08c379a000000000000000000000000000000000000000000000000000000000815260040161365b906153ca565b60405180910390fd5b60066000838152602001908152602001600020600080820160006101000a81549073ffffffffffffffffffffffffffffffffffffffff02191690556001820160006136af919061415f565b6002820160006136bf9190614180565b600382016000905560048201600090556005820160009055600682016000905560078201600090556008820160006101000a81549073ffffffffffffffffffffffffffffffffffffffff0219169055505060005b8160400151518110156137f45760008260200151828151811061373957613738614d5b565b5b602002602001015190508073ffffffffffffffffffffffffffffffffffffffff1663a9059cbb338560400151858151811061377757613776614d5b565b5b60200260200101516040518363ffffffff1660e01b815260040161379c929190614d8a565b6020604051808303816000875af11580156137bb573d6000803e3d6000fd5b505050506040513d601f19601f820116820180604052508101906137df9190614ca9565b505080806137ec90614db3565b915050613713565b507f18051f6150e7f98fcbef5e57fca629d67290a3c8a16f82aed2a944f7163614fc8233604051613826929190614e41565b60405180910390a15050565b6201518083108061384657506301e1338083115b8061385357508551875114155b8061385e5750600085145b1561386857600080fd5b600073ffffffffffffffffffffffffffffffffffffffff168873ffffffffffffffffffffffffffffffffffffffff16036138ae57843410156138a957600080fd5b613936565b60008890508073ffffffffffffffffffffffffffffffffffffffff166323b872dd3330896040518463ffffffff1660e01b81526004016138f093929190614c46565b6020604051808303816000875af115801561390f573d6000803e3d6000fd5b505050506040513d601f19601f820116820180604052508101906139339190614ca9565b50505b6001600081548092919061394990614db3565b919050555060006040518061012001604052808a73ffffffffffffffffffffffffffffffffffffffff1681526020018981526020018881526020018781526020018681526020018581526020018481526020018381526020013373ffffffffffffffffffffffffffffffffffffffff1681525090508060056000600154815260200190815260200160002060008201518160000160006101000a81548173ffffffffffffffffffffffffffffffffffffffff021916908373ffffffffffffffffffffffffffffffffffffffff1602179055506020820151816001019080519060200190613a37929190614088565b506040820151816002019080519060200190613a54929190614112565b50606082015181600301556080820151816004015560a0820151816005015560c0820151816006015560e082015181600701556101008201518160080160006101000a81548173ffffffffffffffffffffffffffffffffffffffff021916908373ffffffffffffffffffffffffffffffffffffffff1602179055509050507f48795a5ec0291bca951fd276973ec64561a740d6c359b9a9c9828144b1d2373c60015433604051613b05929190614e41565b60405180910390a1505050505050505050565b62015180831080613b2c57506301e1338083115b80613b3957508551875114155b80613b445750600085145b80613b5057506101f482115b15613b5a57600080fd5b6000805b8851811015613cb157600073ffffffffffffffffffffffffffffffffffffffff16898281518110613b9257613b91614d5b565b5b602002602001015173ffffffffffffffffffffffffffffffffffffffff1603613be257878181518110613bc857613bc7614d5b565b5b602002602001015182613bdb9190614d05565b9150613c9e565b6000898281518110613bf757613bf6614d5b565b5b602002602001015190508073ffffffffffffffffffffffffffffffffffffffff166323b872dd33308c8681518110613c3257613c31614d5b565b5b60200260200101516040518463ffffffff1660e01b8152600401613c5893929190614c46565b6020604051808303816000875af1158015613c77573d6000803e3d6000fd5b505050506040513d601f19601f82011682018060405250810190613c9b9190614ca9565b50505b8080613ca990614db3565b915050613b5e565b5080341015613cf5576040517f08c379a0000000000000000000000000000000000000000000000000000000008152600401613cec90615436565b60405180910390fd5b60026000815480929190613d0890614db3565b919050555060006040518061012001604052808b73ffffffffffffffffffffffffffffffffffffffff1681526020018a81526020018981526020018881526020018781526020018681526020018581526020018481526020013373ffffffffffffffffffffffffffffffffffffffff1681525090508060066000600254815260200190815260200160002060008201518160000160006101000a81548173ffffffffffffffffffffffffffffffffffffffff021916908373ffffffffffffffffffffffffffffffffffffffff1602179055506020820151816001019080519060200190613df6929190614088565b506040820151816002019080519060200190613e13929190614112565b50606082015181600301556080820151816004015560a0820151816005015560c0820151816006015560e082015181600701556101008201518160080160006101000a81548173ffffffffffffffffffffffffffffffffffffffff021916908373ffffffffffffffffffffffffffffffffffffffff1602179055509050507f4650aee0d729579bf9574d7c382038df711582fc5b975d24ff03d68b43ad34ad60025433604051613ec4929190614e41565b60405180910390a150505050505050505050565b600063f23a6e6160e01b905095945050505050565b60056020528060005260406000206000915090508060000160009054906101000a900473ffffffffffffffffffffffffffffffffffffffff16908060030154908060040154908060050154908060060154908060070154908060080160009054906101000a900473ffffffffffffffffffffffffffffffffffffffff16905087565b60007f01ffc9a7000000000000000000000000000000000000000000000000000000007bffffffffffffffffffffffffffffffffffffffffffffffffffffffff1916827bffffffffffffffffffffffffffffffffffffffffffffffffffffffff1916149050919050565b600082613fe68584613ff0565b1490509392505050565b60008082905060005b845181101561403b576140268286838151811061401957614018614d5b565b5b6020026020010151614046565b9150808061403390614db3565b915050613ff9565b508091505092915050565b600081831061405e576140598284614071565b614069565b6140688383614071565b5b905092915050565b600082600052816020526040600020905092915050565b828054828255906000526020600020908101928215614101579160200282015b828111156141005782518260006101000a81548173ffffffffffffffffffffffffffffffffffffffff021916908373ffffffffffffffffffffffffffffffffffffffff160217905550916020019190600101906140a8565b5b50905061410e91906141a1565b5090565b82805482825590600052602060002090810192821561414e579160200282015b8281111561414d578251825591602001919060010190614132565b5b50905061415b91906141a1565b5090565b508054600082559060005260206000209081019061417d91906141a1565b50565b508054600082559060005260206000209081019061419e91906141a1565b50565b5b808211156141ba5760008160009055506001016141a2565b5090565b6000604051905090565b600080fd5b600080fd5b60007fffffffff0000000000000000000000000000000000000000000000000000000082169050919050565b614207816141d2565b811461421257600080fd5b50565b600081359050614224816141fe565b92915050565b6000602082840312156142405761423f6141c8565b5b600061424e84828501614215565b91505092915050565b60008115159050919050565b61426c81614257565b82525050565b60006020820190506142876000830184614263565b92915050565b6000819050919050565b6142a08161428d565b81146142ab57600080fd5b50565b6000813590506142bd81614297565b92915050565b6000602082840312156142d9576142d86141c8565b5b60006142e7848285016142ae565b91505092915050565b6142f98161428d565b82525050565b600060208201905061431460008301846142f0565b92915050565b600080fd5b6000601f19601f8301169050919050565b7f4e487b7100000000000000000000000000000000000000000000000000000000600052604160045260246000fd5b6143688261431f565b810181811067ffffffffffffffff8211171561438757614386614330565b5b80604052505050565b600061439a6141be565b90506143a6828261435f565b919050565b600067ffffffffffffffff8211156143c6576143c5614330565b5b602082029050602081019050919050565b600080fd5b6000819050919050565b6143ef816143dc565b81146143fa57600080fd5b50565b60008135905061440c816143e6565b92915050565b6000614425614420846143ab565b614390565b90508083825260208201905060208402830185811115614448576144476143d7565b5b835b81811015614471578061445d88826143fd565b84526020840193505060208101905061444a565b5050509392505050565b600082601f8301126144905761448f61431a565b5b81356144a0848260208601614412565b91505092915050565b600080604083850312156144c0576144bf6141c8565b5b60006144ce858286016142ae565b925050602083013567ffffffffffffffff8111156144ef576144ee6141cd565b5b6144fb8582860161447b565b9150509250929050565b600063ffffffff82169050919050565b61451e81614505565b82525050565b600073ffffffffffffffffffffffffffffffffffffffff82169050919050565b600061454f82614524565b9050919050565b61455f81614544565b82525050565b60006101608201905061457b600083018e614515565b614588602083018d614515565b614595604083018c614556565b6145a2606083018b6142f0565b6145af608083018a6142f0565b6145bc60a08301896142f0565b6145c960c08301886142f0565b6145d660e08301876142f0565b6145e46101008301866142f0565b6145f26101208301856142f0565b614600610140830184614263565b9c9b505050505050505050505050565b61461981614544565b811461462457600080fd5b50565b60008135905061463681614610565b92915050565b600060208284031215614652576146516141c8565b5b600061466084828501614627565b91505092915050565b600067ffffffffffffffff82111561468457614683614330565b5b602082029050602081019050919050565b60006146a86146a384614669565b614390565b905080838252602082019050602084028301858111156146cb576146ca6143d7565b5b835b818110156146f457806146e088826142ae565b8452602084019350506020810190506146cd565b5050509392505050565b600082601f8301126147135761471261431a565b5b8135614723848260208601614695565b91505092915050565b600080fd5b600067ffffffffffffffff82111561474c5761474b614330565b5b6147558261431f565b9050602081019050919050565b82818337600083830152505050565b600061478461477f84614731565b614390565b9050828152602081018484840111156147a05761479f61472c565b5b6147ab848285614762565b509392505050565b600082601f8301126147c8576147c761431a565b5b81356147d8848260208601614771565b91505092915050565b600080600080600060a086880312156147fd576147fc6141c8565b5b600061480b88828901614627565b955050602061481c88828901614627565b945050604086013567ffffffffffffffff81111561483d5761483c6141cd565b5b614849888289016146fe565b935050606086013567ffffffffffffffff81111561486a576148696141cd565b5b614876888289016146fe565b925050608086013567ffffffffffffffff811115614897576148966141cd565b5b6148a3888289016147b3565b9150509295509295909350565b6148b9816141d2565b82525050565b60006020820190506148d460008301846148b0565b92915050565b6148e3816143dc565b82525050565b600060e0820190506148fe600083018a614556565b61490b60208301896142f0565b61491860408301886142f0565b61492560608301876142f0565b61493260808301866142f0565b61493f60a08301856148da565b61494c60c0830184614556565b98975050505050505050565b600067ffffffffffffffff82111561497357614972614330565b5b602082029050602081019050919050565b600061499761499284614958565b614390565b905080838252602082019050602084028301858111156149ba576149b96143d7565b5b835b818110156149e357806149cf8882614627565b8452602084019350506020810190506149bc565b5050509392505050565b600082601f830112614a0257614a0161431a565b5b8135614a12848260208601614984565b91505092915050565b600080600080600080600080610100898b031215614a3c57614a3b6141c8565b5b6000614a4a8b828c01614627565b985050602089013567ffffffffffffffff811115614a6b57614a6a6141cd565b5b614a778b828c016149ed565b975050604089013567ffffffffffffffff811115614a9857614a976141cd565b5b614aa48b828c016146fe565b9650506060614ab58b828c016142ae565b9550506080614ac68b828c016142ae565b94505060a0614ad78b828c016142ae565b93505060c0614ae88b828c016142ae565b92505060e0614af98b828c016143fd565b9150509295985092959890939650565b600080600080600060a08688031215614b2557614b246141c8565b5b6000614b3388828901614627565b9550506020614b4488828901614627565b9450506040614b55888289016142ae565b9350506060614b66888289016142ae565b925050608086013567ffffffffffffffff811115614b8757614b866141cd565b5b614b93888289016147b3565b9150509295509295909350565b6000819050919050565b6000614bc5614bc0614bbb84614505565b614ba0565b61428d565b9050919050565b614bd581614baa565b82525050565b6000604082019050614bf06000830185614556565b614bfd6020830184614bcc565b9392505050565b600081519050614c1381614297565b92915050565b600060208284031215614c2f57614c2e6141c8565b5b6000614c3d84828501614c04565b91505092915050565b6000606082019050614c5b6000830186614556565b614c686020830185614556565b614c7560408301846142f0565b949350505050565b614c8681614257565b8114614c9157600080fd5b50565b600081519050614ca381614c7d565b92915050565b600060208284031215614cbf57614cbe6141c8565b5b6000614ccd84828501614c94565b91505092915050565b7f4e487b7100000000000000000000000000000000000000000000000000000000600052601160045260246000fd5b6000614d108261428d565b9150614d1b8361428d565b9250827fffffffffffffffffffffffffffffffffffffffffffffffffffffffffffffffff03821115614d5057614d4f614cd6565b5b828201905092915050565b7f4e487b7100000000000000000000000000000000000000000000000000000000600052603260045260246000fd5b6000604082019050614d9f6000830185614556565b614dac60208301846142f0565b9392505050565b6000614dbe8261428d565b91507fffffffffffffffffffffffffffffffffffffffffffffffffffffffffffffffff8203614df057614def614cd6565b5b600182019050919050565b600081905092915050565b50565b6000614e16600083614dfb565b9150614e2182614e06565b600082019050919050565b6000614e3782614e09565b9150819050919050565b6000604082019050614e5660008301856142f0565b614e636020830184614556565b9392505050565b600082825260208201905092915050565b7f44656c657465642f45787069726564204f666665720000000000000000000000600082015250565b6000614eb1601583614e6a565b9150614ebc82614e7b565b602082019050919050565b60006020820190508181036000830152614ee081614ea4565b9050919050565b60008160601b9050919050565b6000614eff82614ee7565b9050919050565b6000614f1182614ef4565b9050919050565b614f29614f2482614544565b614f06565b82525050565b6000614f3b8284614f18565b60148201915081905092915050565b7f596f7520617265206e6f7420696e207468652077686974656c69737400000000600082015250565b6000614f80601c83614e6a565b9150614f8b82614f4a565b602082019050919050565b60006020820190508181036000830152614faf81614f73565b9050919050565b7f4e6f7420656e6f75676820457468657200000000000000000000000000000000600082015250565b6000614fec601083614e6a565b9150614ff782614fb6565b602082019050919050565b6000602082019050818103600083015261501b81614fdf565b9050919050565b600061502d82614505565b915061503883614505565b92508263ffffffff0382111561505157615050614cd6565b5b828201905092915050565b600061506782614505565b915061507283614505565b92508282101561508557615084614cd6565b5b828203905092915050565b6000819050919050565b60006150b56150b06150ab84615090565b614ba0565b61428d565b9050919050565b6150c58161509a565b82525050565b600082825260208201905092915050565b60006150e96000836150cb565b91506150f482614e06565b600082019050919050565b600060a0820190506151146000830187614556565b6151216020830186614556565b61512e6040830185614bcc565b61513b60608301846150bc565b818103608083015261514c816150dc565b905095945050505050565b7f4e487b7100000000000000000000000000000000000000000000000000000000600052601260045260246000fd5b60006151918261428d565b915061519c8361428d565b9250826151ac576151ab615157565b5b828204905092915050565b60006151c28261428d565b91506151cd8361428d565b9250817fffffffffffffffffffffffffffffffffffffffffffffffffffffffffffffffff048311821515161561520657615205614cd6565b5b828202905092915050565b7f5472616e73616374696f6e204572726f72000000000000000000000000000000600082015250565b6000615247601183614e6a565b915061525282615211565b602082019050919050565b600060208201905081810360008301526152768161523a565b9050919050565b600060408201905061529260008301856142f0565b61529f60208301846142f0565b9392505050565b7f44656c657465642f4e6f6e2d4578697374616e74204f66666572000000000000600082015250565b60006152dc601a83614e6a565b91506152e7826152a6565b602082019050919050565b6000602082019050818103600083015261530b816152cf565b9050919050565b7f4e6f7420456e6f75676820457468657200000000000000000000000000000000600082015250565b6000615348601083614e6a565b915061535382615312565b602082019050919050565b600060208201905081810360008301526153778161533b565b9050919050565b7f4e6f7420746865206f776e657200000000000000000000000000000000000000600082015250565b60006153b4600d83614e6a565b91506153bf8261537e565b602082019050919050565b600060208201905081810360008301526153e3816153a7565b9050919050565b7f4e6f7420456e6f75676820455448455200000000000000000000000000000000600082015250565b6000615420601083614e6a565b915061542b826153ea565b602082019050919050565b6000602082019050818103600083015261544f81615413565b905091905056fea264697066735822122057eb0f543b4c496f2c690e2877eca6ca30569131a36bbef5e09c998a4f3add9264736f6c634300080d0033",
  "immutableReferences": {},
  "source": "// SPDX-License-Identifier: UNLICENSED\npragma solidity ^0.8.13;\n\nimport \"@openzeppelin/contracts/token/ERC20/IERC20.sol\";\nimport \"@openzeppelin/contracts/token/ERC1155/utils/ERC1155Holder.sol\";\nimport \"@openzeppelin/contracts/utils/cryptography/MerkleProof.sol\";\nimport \"./NFT.sol\";\n\ncontract DebitaV1 is ERC1155Holder {\n    error notEnoughFunds();\n    error requirementsNotFull();\n\n    event LenderOfferCreated(uint256 id, address _owner);\n    event LenderOfferDeleted(uint256 id, address _owner);\n    event LenderAcepted(uint256 LenderID, uint256 LoanId);\n    event CollateralOfferCreated(uint256 id, address _owner);\n    event CollateralOfferDeleted(uint256 id, address _owner);\n    event CollateralAccepted(uint256 LenderID, uint256 LoanId);\n\n    address owner;\n    uint256 Lender_OF_ID;\n    uint256 Collateral_OF_ID;\n    uint256 LOAN_ID;\n    address NFT_CONTRACT;\n    uint32 NFT_ID;\n\n    struct LenderOInfo {\n        address LenderToken;\n        address[] wantedCollateralTokens;\n        uint256[] wantedCollateralAmount;\n        uint256 LenderAmount;\n        uint256 interest;\n        uint256 timelap;\n        uint256 paymentCount;\n        bytes32 root;\n        address owner;\n    }\n\n    struct CollateralOInfo {\n        address wantedLenderToken;\n        address[] collaterals;\n        uint256[] collateralAmount;\n        uint256 wantedLenderAmount;\n        uint256 interest;\n        uint256 timelap;\n        uint256 paymentCount;\n        bytes32 root;\n        address owner;\n    }\n\n    struct LoanInfo {\n        uint32 collateralOwnerID;\n        uint32 LenderOwnerId;\n        address LenderToken;\n        uint256 LenderAmount;\n        address[] collaterals;\n        uint256[] collateralAmount;\n        uint256 timelap;\n        uint256 paymentCount;\n        uint256 paymentsPaid;\n        uint256 paymentAmount;\n        uint256 deadline;\n        uint256 deadlineNext;\n        bool executed;\n    }\n\n    // Lender ID => All Info About the Offer\n    mapping(uint256 => LenderOInfo) public LendersOffers;\n    // Collateral ID => All Info About the Collateral\n    mapping(uint256 => CollateralOInfo) public CollateralOffers;\n    // Loan ID => All Info about the Loan\n    mapping(uint256 => LoanInfo) public Loans;\n    // NFT ID => Loan ID\n    mapping(uint256 => uint256) public loansByNFt;\n    // NFT ID => CLAIMEABLE DEBT\n    mapping(uint256 => uint256) public claimeableDebt;\n\n    constructor() {\n        owner = msg.sender;\n    }\n\n    modifier onlyOwner() {\n        if (msg.sender != owner) {\n            revert();\n        }\n        _;\n    }\n\n    function createLenderOption(\n        address _LenderToken,\n        address[] memory _wantedCollateralTokens,\n        uint256[] memory _wantedCollateralAmount,\n        uint256 _LenderAmount,\n        uint256 _interest,\n        uint256 _timelap,\n        uint256 _paymentCount,\n        bytes32 _root\n    ) public payable {\n        if (\n            _timelap < 1 days ||\n            _timelap > 365 days ||\n            _wantedCollateralTokens.length != _wantedCollateralAmount.length ||\n            _LenderAmount == 0\n        ) {\n            revert();\n        }\n\n        if (_LenderToken == address(0x0)) {\n            require(msg.value >= _LenderAmount);\n        } else {\n            IERC20 B_Token = IERC20(_LenderToken);\n            B_Token.transferFrom(msg.sender, address(this), _LenderAmount);\n        }\n\n        Lender_OF_ID++;\n        LenderOInfo memory lastLender = LenderOInfo({\n            LenderToken: _LenderToken,\n            wantedCollateralTokens: _wantedCollateralTokens,\n            wantedCollateralAmount: _wantedCollateralAmount,\n            LenderAmount: _LenderAmount,\n            interest: _interest,\n            timelap: _timelap,\n            paymentCount: _paymentCount,\n            root: _root,\n            owner: msg.sender\n        });\n        LendersOffers[Lender_OF_ID] = lastLender;\n        emit LenderOfferCreated(Lender_OF_ID, msg.sender);\n    }\n\n    // Cancel Lender Offer\n    function cancelLenderOffer(uint256 id) public {\n        LenderOInfo memory _LenderINFO = LendersOffers[id];\n        if (_LenderINFO.owner != msg.sender) {\n            revert();\n        }\n        delete LendersOffers[id];\n        IERC20 B_TOKEN = IERC20(_LenderINFO.LenderToken);\n        B_TOKEN.transfer(msg.sender, _LenderINFO.LenderAmount);\n        emit LenderOfferDeleted(id, msg.sender);\n    }\n\n    // User A offers to provide some collateral, such as a valuable asset, to User B in exchange for the loan. User B agrees to lend the money to User A under the condition that User A puts up the collateral as security for the loan.\n\n    function createCollateralOffer(\n        address _wantedLenderToken,\n        address[] memory collateralTokens,\n        uint256[] memory collateralAmount,\n        uint256 _wantedLenderAmount,\n        uint256 _interest,\n        uint256 _timelap,\n        uint256 _paymentCount,\n        bytes32 _root\n    ) public payable {\n        if (\n            _timelap < 1 days ||\n            _timelap > 365 days ||\n            collateralTokens.length != collateralAmount.length ||\n            _wantedLenderAmount == 0 ||\n            _paymentCount > 500\n        ) {\n            revert();\n        }\n        uint256 amountWEI;\n        for (uint256 i; i < collateralTokens.length; i++) {\n            if (collateralTokens[i] == address(0x0)) {\n                amountWEI += collateralAmount[i];\n            } else {\n                IERC20 ERC20_TOKEN = IERC20(collateralTokens[i]);\n                ERC20_TOKEN.transferFrom(\n                    msg.sender,\n                    address(this),\n                    collateralAmount[i]\n                );\n            }\n        }\n        require(msg.value >= amountWEI, \"Not Enough ETHER\");\n\n        Collateral_OF_ID++;\n\n        CollateralOInfo memory lastCollateral = CollateralOInfo({\n            wantedLenderToken: _wantedLenderToken,\n            collaterals: collateralTokens,\n            collateralAmount: collateralAmount,\n            wantedLenderAmount: _wantedLenderAmount,\n            interest: _interest,\n            timelap: _timelap,\n            paymentCount: _paymentCount,\n            root: _root,\n            owner: msg.sender\n        });\n        CollateralOffers[Collateral_OF_ID] = lastCollateral;\n        emit CollateralOfferCreated(Collateral_OF_ID, msg.sender);\n    }\n\n    function cancelCollateralOffer(uint256 _id) public {\n        CollateralOInfo memory collateralInfo = CollateralOffers[_id];\n        require(collateralInfo.owner == msg.sender, \"Not the owner\");\n        delete CollateralOffers[_id];\n        for (uint256 i; i < collateralInfo.collateralAmount.length; i++) {\n            IERC20 token = IERC20(collateralInfo.collaterals[i]);\n            token.transfer(msg.sender, collateralInfo.collateralAmount[i]);\n        }\n        emit CollateralOfferDeleted(_id, msg.sender);\n    }\n\n    function acceptCollateralOffer(uint256 _id, bytes32[] memory proof)\n        public\n        payable\n    {\n        CollateralOInfo memory collateralInfo = CollateralOffers[_id];\n        require(\n            collateralInfo.owner != address(0x0),\n            \"Deleted/Non-Existant Offer\"\n        );\n        // Check Whitelist\n        if (collateralInfo.root != 0x0) {\n            bytes32 _leaf = keccak256(abi.encodePacked(msg.sender));\n            bool Whitelisted = MerkleProof.verify(\n                proof,\n                collateralInfo.root,\n                _leaf\n            );\n            require(Whitelisted, \"You are not in the whitelist\");\n        }\n\n        delete CollateralOffers[_id];\n\n        // Send Tokens to Collateral Owner\n\n        if (collateralInfo.wantedLenderToken == address(0x0)) {\n            require(\n                msg.value >= collateralInfo.wantedLenderAmount,\n                \"Not Enough Ether\"\n            );\n            (bool success, ) = collateralInfo.owner.call{\n                value: collateralInfo.wantedLenderAmount\n            }(\"\");\n            require(success, \"Transaction Error\");\n        } else {\n            IERC20 wantedToken = IERC20(collateralInfo.wantedLenderToken);\n            wantedToken.transferFrom(\n                msg.sender,\n                collateralInfo.owner,\n                collateralInfo.wantedLenderAmount\n            );\n        }\n\n        // Update States & Mint NFTS\n        NFT_ID += 2;\n        LOAN_ID++;\n        Ownerships ownershipContract = Ownerships(NFT_CONTRACT);\n        for (uint256 i; i < 2; i++) {\n            ownershipContract.mint();\n            if (i == 0) {\n                ownershipContract.safeTransferFrom(\n                    address(this),\n                    msg.sender,\n                    NFT_ID - 1,\n                    1,\n                    \"\"\n                );\n                loansByNFt[NFT_ID - 1] = LOAN_ID;\n            } else {\n                ownershipContract.safeTransferFrom(\n                    address(this),\n                    collateralInfo.owner,\n                    NFT_ID,\n                    1,\n                    \"\"\n                );\n                loansByNFt[NFT_ID] = LOAN_ID;\n            }\n            // Transfer to new owners\n        }\n        // Save Loan Info\n        uint256 paymentPerTime;\n        if (collateralInfo.paymentCount > 0) {\n            paymentPerTime =\n                ((collateralInfo.wantedLenderAmount /\n                    collateralInfo.paymentCount) *\n                    (100 + collateralInfo.interest)) /\n                100;\n        } else {\n            paymentPerTime = ((collateralInfo.wantedLenderAmount *\n                (100 + collateralInfo.interest)) / 100);\n        }\n\n        uint256 globalDeadline = (collateralInfo.paymentCount *\n            collateralInfo.timelap) + block.timestamp;\n        uint256 nextDeadline = block.timestamp + collateralInfo.timelap;\n        Loans[LOAN_ID] = LoanInfo({\n            collateralOwnerID: NFT_ID,\n            LenderOwnerId: NFT_ID - 1,\n            LenderToken: collateralInfo.wantedLenderToken,\n            LenderAmount: collateralInfo.wantedLenderAmount,\n            collaterals: collateralInfo.collaterals,\n            collateralAmount: collateralInfo.collateralAmount,\n            timelap: collateralInfo.timelap,\n            paymentCount: collateralInfo.paymentCount,\n            paymentsPaid: 0,\n            paymentAmount: paymentPerTime,\n            deadline: globalDeadline,\n            deadlineNext: nextDeadline,\n            executed: false\n        });\n        emit CollateralAccepted(_id, LOAN_ID);\n    }\n\n    function acceptLenderOffer(uint256 id, bytes32[] memory proof)\n        public\n        payable\n    {\n        LenderOInfo memory lenderInfo = LendersOffers[id];\n        require(lenderInfo.owner != address(0x0), \"Deleted/Expired Offer\");\n        // Check Whitelist\n        if (lenderInfo.root != 0x0) {\n            bytes32 _leaf = keccak256(abi.encodePacked(msg.sender));\n            bool Whitelisted = MerkleProof.verify(\n                proof,\n                lenderInfo.root,\n                _leaf\n            );\n            require(Whitelisted, \"You are not in the whitelist\");\n        }\n\n        delete LendersOffers[id];\n        uint256 WEIamount;\n\n        // Send Collaterals to this contract\n        for (uint256 i; i < lenderInfo.wantedCollateralTokens.length; i++) {\n            if (lenderInfo.wantedCollateralTokens[i] == address(0x0)) {\n                WEIamount += lenderInfo.wantedCollateralAmount[i];\n            } else {\n                IERC20 wantedToken = IERC20(\n                    lenderInfo.wantedCollateralTokens[i]\n                );\n                wantedToken.transferFrom(\n                    msg.sender,\n                    address(this),\n                    lenderInfo.wantedCollateralAmount[i]\n                );\n            }\n        }\n\n        require(msg.value >= WEIamount, \"Not enough Ether\");\n        // Update States & Mint NFTS\n        NFT_ID += 2;\n        LOAN_ID++;\n        Ownerships ownershipContract = Ownerships(NFT_CONTRACT);\n\n        for (uint256 i; i < 2; i++) {\n            ownershipContract.mint();\n            if (i == 0) {\n                ownershipContract.safeTransferFrom(\n                    address(this),\n                    lenderInfo.owner,\n                    NFT_ID - 1,\n                    1,\n                    \"\"\n                );\n                loansByNFt[NFT_ID - 1] = LOAN_ID;\n            } else {\n                ownershipContract.safeTransferFrom(\n                    address(this),\n                    msg.sender,\n                    NFT_ID,\n                    1,\n                    \"\"\n                );\n                loansByNFt[NFT_ID] = LOAN_ID;\n            }\n        }\n        // Save Loan Info\n        uint256 paymentPerTime;\n        if (lenderInfo.paymentCount > 0) {\n            paymentPerTime =\n                ((lenderInfo.LenderAmount / lenderInfo.paymentCount) *\n                    (100 + lenderInfo.interest)) /\n                100;\n        } else {\n            paymentPerTime = ((lenderInfo.LenderAmount *\n                (100 + lenderInfo.interest)) / 100);\n        }\n\n        uint256 globalDeadline = (lenderInfo.paymentCount *\n            lenderInfo.timelap) + block.timestamp;\n        uint256 nextDeadline = block.timestamp + lenderInfo.timelap;\n        Loans[LOAN_ID] = LoanInfo({\n            collateralOwnerID: NFT_ID,\n            LenderOwnerId: NFT_ID - 1,\n            LenderToken: lenderInfo.LenderToken,\n            LenderAmount: lenderInfo.LenderAmount,\n            collaterals: lenderInfo.wantedCollateralTokens,\n            collateralAmount: lenderInfo.wantedCollateralAmount,\n            timelap: lenderInfo.timelap,\n            paymentCount: lenderInfo.paymentCount,\n            paymentsPaid: 0,\n            paymentAmount: paymentPerTime,\n            deadline: globalDeadline,\n            deadlineNext: nextDeadline,\n            executed: false\n        });\n        // Send Loan to the owner of the collateral\n        if (lenderInfo.LenderToken == address(0x0)) {\n            (bool success, ) = msg.sender.call{value: lenderInfo.LenderAmount}(\n                \"\"\n            );\n            require(success, \"Transaction Error\");\n        } else {\n            IERC20 lenderToken = IERC20(lenderInfo.LenderToken);\n            lenderToken.transfer(msg.sender, lenderInfo.LenderAmount);\n        }\n\n        emit LenderAcepted(id, LOAN_ID);\n    }\n\n    function payDebt(uint256 id) public payable {\n        LoanInfo memory loan = Loans[id];\n        Ownerships ownerContract = Ownerships(NFT_CONTRACT);\n\n        if (\n            loan.deadline < block.timestamp ||\n            ownerContract.balanceOf(msg.sender, loan.collateralOwnerID) != 1 ||\n            loan.paymentsPaid == loan.paymentCount ||\n            loan.executed == true\n        ) {\n            revert();\n        }\n\n        if (loan.LenderToken == address(0x0)) {\n            require(msg.value >= loan.paymentAmount);\n        } else {\n            IERC20 lenderToken = IERC20(loan.LenderToken);\n            lenderToken.transferFrom(\n                msg.sender,\n                address(this),\n                loan.paymentAmount\n            );\n        }\n\n        claimeableDebt[loan.LenderOwnerId] += loan.paymentAmount;\n        loan.paymentsPaid += 1;\n        loan.deadlineNext += loan.timelap;\n        Loans[id] = loan;\n    }\n\n    function claimCollateralasLender(uint256 id) public {\n        LoanInfo memory loan = Loans[id];\n        Ownerships ownerContract = Ownerships(NFT_CONTRACT);\n\n        if (\n            ownerContract.balanceOf(msg.sender, loan.LenderOwnerId) != 1 ||\n            loan.deadlineNext > block.timestamp ||\n            loan.paymentCount == loan.paymentsPaid ||\n            loan.executed == true\n        ) {\n            revert();\n        }\n        loan.executed = true;\n        uint256 WEIamount;\n        for (uint256 i; i < loan.collaterals.length; i++) {\n            if (loan.collaterals[i] == address(0x0)) {\n                WEIamount += loan.collateralAmount[i];\n            } else {\n                IERC20 token = IERC20(loan.collaterals[i]);\n                token.transfer(msg.sender, loan.collateralAmount[i]);\n            }\n        }\n        (bool success, ) = msg.sender.call{value: WEIamount}(\"\");\n        require(success);\n        Loans[id] = loan;\n    }\n\n    function claimCollateralasBorrower(uint256 id) public {\n        LoanInfo memory loan = Loans[id];\n        Ownerships ownerContract = Ownerships(NFT_CONTRACT);\n        if (\n            ownerContract.balanceOf(msg.sender, loan.collateralOwnerID) != 1 ||\n            loan.paymentCount != loan.paymentsPaid ||\n            loan.executed == true\n        ) {\n            revert();\n        }\n\n        loan.executed = true;\n        uint256 WEIamount;\n        for (uint256 i; i < loan.collaterals.length; i++) {\n            if (loan.collaterals[i] == address(0x0)) {\n                WEIamount += loan.collateralAmount[i];\n            } else {\n                IERC20 token = IERC20(loan.collaterals[i]);\n                token.transfer(msg.sender, loan.collateralAmount[i]);\n            }\n        }\n        (bool success, ) = msg.sender.call{value: WEIamount}(\"\");\n        require(success);\n        Loans[id] = loan;\n    }\n\n    function setNFTContract(address _newAddress) public onlyOwner {\n        NFT_CONTRACT = _newAddress;\n    }\n\n}\n",
  "sourcePath": "/Users/martinsuarez/Documents/Debita V1/contracts/DebitaV1.sol",
  "compiler": {
    "name": "solc",
    "version": "0.8.13+commit.abaa5c0e.Emscripten.clang"
  },
  "schemaVersion": "3.4.7",
  "updatedAt": "2022-12-27T15:39:55.037Z",
  "networkType": "ethereum",
  "devdoc": {
    "kind": "dev",
    "methods": {
      "supportsInterface(bytes4)": {
        "details": "See {IERC165-supportsInterface}."
      }
    },
    "version": 1
  },
  "userdoc": {
    "kind": "user",
    "methods": {},
    "version": 1
  }
}