{
  "contractName": "Ownerships",
  "abi": [
    {
      "inputs": [],
      "stateMutability": "nonpayable",
      "type": "constructor"
    },
    {
      "anonymous": false,
      "inputs": [
        {
          "indexed": true,
          "internalType": "address",
          "name": "account",
          "type": "address"
        },
        {
          "indexed": true,
          "internalType": "address",
          "name": "operator",
          "type": "address"
        },
        {
          "indexed": false,
          "internalType": "bool",
          "name": "approved",
          "type": "bool"
        }
      ],
      "name": "ApprovalForAll",
      "type": "event"
    },
    {
      "anonymous": false,
      "inputs": [
        {
          "indexed": true,
          "internalType": "address",
          "name": "operator",
          "type": "address"
        },
        {
          "indexed": true,
          "internalType": "address",
          "name": "from",
          "type": "address"
        },
        {
          "indexed": true,
          "internalType": "address",
          "name": "to",
          "type": "address"
        },
        {
          "indexed": false,
          "internalType": "uint256[]",
          "name": "ids",
          "type": "uint256[]"
        },
        {
          "indexed": false,
          "internalType": "uint256[]",
          "name": "values",
          "type": "uint256[]"
        }
      ],
      "name": "TransferBatch",
      "type": "event"
    },
    {
      "anonymous": false,
      "inputs": [
        {
          "indexed": true,
          "internalType": "address",
          "name": "operator",
          "type": "address"
        },
        {
          "indexed": true,
          "internalType": "address",
          "name": "from",
          "type": "address"
        },
        {
          "indexed": true,
          "internalType": "address",
          "name": "to",
          "type": "address"
        },
        {
          "indexed": false,
          "internalType": "uint256",
          "name": "id",
          "type": "uint256"
        },
        {
          "indexed": false,
          "internalType": "uint256",
          "name": "value",
          "type": "uint256"
        }
      ],
      "name": "TransferSingle",
      "type": "event"
    },
    {
      "anonymous": false,
      "inputs": [
        {
          "indexed": false,
          "internalType": "string",
          "name": "value",
          "type": "string"
        },
        {
          "indexed": true,
          "internalType": "uint256",
          "name": "id",
          "type": "uint256"
        }
      ],
      "name": "URI",
      "type": "event"
    },
    {
      "inputs": [
        {
          "internalType": "address",
          "name": "account",
          "type": "address"
        },
        {
          "internalType": "uint256",
          "name": "id",
          "type": "uint256"
        }
      ],
      "name": "balanceOf",
      "outputs": [
        {
          "internalType": "uint256",
          "name": "",
          "type": "uint256"
        }
      ],
      "stateMutability": "view",
      "type": "function",
      "constant": true
    },
    {
      "inputs": [
        {
          "internalType": "address[]",
          "name": "accounts",
          "type": "address[]"
        },
        {
          "internalType": "uint256[]",
          "name": "ids",
          "type": "uint256[]"
        }
      ],
      "name": "balanceOfBatch",
      "outputs": [
        {
          "internalType": "uint256[]",
          "name": "",
          "type": "uint256[]"
        }
      ],
      "stateMutability": "view",
      "type": "function",
      "constant": true
    },
    {
      "inputs": [
        {
          "internalType": "address",
          "name": "account",
          "type": "address"
        },
        {
          "internalType": "address",
          "name": "operator",
          "type": "address"
        }
      ],
      "name": "isApprovedForAll",
      "outputs": [
        {
          "internalType": "bool",
          "name": "",
          "type": "bool"
        }
      ],
      "stateMutability": "view",
      "type": "function",
      "constant": true
    },
    {
      "inputs": [
        {
          "internalType": "address",
          "name": "from",
          "type": "address"
        },
        {
          "internalType": "address",
          "name": "to",
          "type": "address"
        },
        {
          "internalType": "uint256[]",
          "name": "ids",
          "type": "uint256[]"
        },
        {
          "internalType": "uint256[]",
          "name": "amounts",
          "type": "uint256[]"
        },
        {
          "internalType": "bytes",
          "name": "data",
          "type": "bytes"
        }
      ],
      "name": "safeBatchTransferFrom",
      "outputs": [],
      "stateMutability": "nonpayable",
      "type": "function"
    },
    {
      "inputs": [
        {
          "internalType": "address",
          "name": "from",
          "type": "address"
        },
        {
          "internalType": "address",
          "name": "to",
          "type": "address"
        },
        {
          "internalType": "uint256",
          "name": "id",
          "type": "uint256"
        },
        {
          "internalType": "uint256",
          "name": "amount",
          "type": "uint256"
        },
        {
          "internalType": "bytes",
          "name": "data",
          "type": "bytes"
        }
      ],
      "name": "safeTransferFrom",
      "outputs": [],
      "stateMutability": "nonpayable",
      "type": "function"
    },
    {
      "inputs": [
        {
          "internalType": "address",
          "name": "operator",
          "type": "address"
        },
        {
          "internalType": "bool",
          "name": "approved",
          "type": "bool"
        }
      ],
      "name": "setApprovalForAll",
      "outputs": [],
      "stateMutability": "nonpayable",
      "type": "function"
    },
    {
      "inputs": [
        {
          "internalType": "bytes4",
          "name": "interfaceId",
          "type": "bytes4"
        }
      ],
      "name": "supportsInterface",
      "outputs": [
        {
          "internalType": "bool",
          "name": "",
          "type": "bool"
        }
      ],
      "stateMutability": "view",
      "type": "function",
      "constant": true
    },
    {
      "inputs": [
        {
          "internalType": "uint256",
          "name": "",
          "type": "uint256"
        }
      ],
      "name": "uri",
      "outputs": [
        {
          "internalType": "string",
          "name": "",
          "type": "string"
        }
      ],
      "stateMutability": "view",
      "type": "function",
      "constant": true
    },
    {
      "inputs": [],
      "name": "mint",
      "outputs": [],
      "stateMutability": "nonpayable",
      "type": "function"
    }
  ],
  "bytecode": "0x608060405260006003553480156200001657600080fd5b506040518060200160405280600081525062000038816200003f60201b60201c565b506200016f565b8060029080519060200190620000579291906200005b565b5050565b82805462000069906200013a565b90600052602060002090601f0160209004810192826200008d5760008555620000d9565b82601f10620000a857805160ff1916838001178555620000d9565b82800160010185558215620000d9579182015b82811115620000d8578251825591602001919060010190620000bb565b5b509050620000e89190620000ec565b5090565b5b8082111562000107576000816000905550600101620000ed565b5090565b7f4e487b7100000000000000000000000000000000000000000000000000000000600052602260045260246000fd5b600060028204905060018216806200015357607f821691505b6020821081036200016957620001686200010b565b5b50919050565b6127b1806200017f6000396000f3fe608060405234801561001057600080fd5b50600436106100925760003560e01c80632eb2c2d6116100665780632eb2c2d6146101315780634e1273f41461014d578063a22cb4651461017d578063e985e9c514610199578063f242432a146101c957610092565b8062fdd58e1461009757806301ffc9a7146100c75780630e89341c146100f75780631249c58b14610127575b600080fd5b6100b160048036038101906100ac91906115ad565b6101e5565b6040516100be91906115fc565b60405180910390f35b6100e160048036038101906100dc919061166f565b6102ad565b6040516100ee91906116b7565b60405180910390f35b610111600480360381019061010c91906116d2565b61038f565b60405161011e9190611798565b60405180910390f35b61012f610423565b005b61014b600480360381019061014691906119b7565b61045b565b005b61016760048036038101906101629190611b49565b6104fc565b6040516101749190611c7f565b60405180910390f35b61019760048036038101906101929190611ccd565b610615565b005b6101b360048036038101906101ae9190611d0d565b61062b565b6040516101c091906116b7565b60405180910390f35b6101e360048036038101906101de9190611d4d565b6106bf565b005b60008073ffffffffffffffffffffffffffffffffffffffff168373ffffffffffffffffffffffffffffffffffffffff1603610255576040517f08c379a000000000000000000000000000000000000000000000000000000000815260040161024c90611e56565b60405180910390fd5b60008083815260200190815260200160002060008473ffffffffffffffffffffffffffffffffffffffff1673ffffffffffffffffffffffffffffffffffffffff16815260200190815260200160002054905092915050565b60007fd9b67a26000000000000000000000000000000000000000000000000000000007bffffffffffffffffffffffffffffffffffffffffffffffffffffffff1916827bffffffffffffffffffffffffffffffffffffffffffffffffffffffff1916148061037857507f0e89341c000000000000000000000000000000000000000000000000000000007bffffffffffffffffffffffffffffffffffffffffffffffffffffffff1916827bffffffffffffffffffffffffffffffffffffffffffffffffffffffff1916145b80610388575061038782610760565b5b9050919050565b60606002805461039e90611ea5565b80601f01602080910402602001604051908101604052809291908181526020018280546103ca90611ea5565b80156104175780601f106103ec57610100808354040283529160200191610417565b820191906000526020600020905b8154815290600101906020018083116103fa57829003601f168201915b50505050509050919050565b6003600081548092919061043690611f05565b9190505550610459336003546001604051806020016040528060008152506107ca565b565b61046361097a565b73ffffffffffffffffffffffffffffffffffffffff168573ffffffffffffffffffffffffffffffffffffffff1614806104a957506104a8856104a361097a565b61062b565b5b6104e8576040517f08c379a00000000000000000000000000000000000000000000000000000000081526004016104df90611fbf565b60405180910390fd5b6104f58585858585610982565b5050505050565b60608151835114610542576040517f08c379a000000000000000000000000000000000000000000000000000000000815260040161053990612051565b60405180910390fd5b6000835167ffffffffffffffff81111561055f5761055e6117bf565b5b60405190808252806020026020018201604052801561058d5781602001602082028036833780820191505090505b50905060005b845181101561060a576105da8582815181106105b2576105b1612071565b5b60200260200101518583815181106105cd576105cc612071565b5b60200260200101516101e5565b8282815181106105ed576105ec612071565b5b6020026020010181815250508061060390611f05565b9050610593565b508091505092915050565b61062761062061097a565b8383610ca3565b5050565b6000600160008473ffffffffffffffffffffffffffffffffffffffff1673ffffffffffffffffffffffffffffffffffffffff16815260200190815260200160002060008373ffffffffffffffffffffffffffffffffffffffff1673ffffffffffffffffffffffffffffffffffffffff16815260200190815260200160002060009054906101000a900460ff16905092915050565b6106c761097a565b73ffffffffffffffffffffffffffffffffffffffff168573ffffffffffffffffffffffffffffffffffffffff16148061070d575061070c8561070761097a565b61062b565b5b61074c576040517f08c379a000000000000000000000000000000000000000000000000000000000815260040161074390611fbf565b60405180910390fd5b6107598585858585610e0f565b5050505050565b60007f01ffc9a7000000000000000000000000000000000000000000000000000000007bffffffffffffffffffffffffffffffffffffffffffffffffffffffff1916827bffffffffffffffffffffffffffffffffffffffffffffffffffffffff1916149050919050565b600073ffffffffffffffffffffffffffffffffffffffff168473ffffffffffffffffffffffffffffffffffffffff1603610839576040517f08c379a000000000000000000000000000000000000000000000000000000000815260040161083090612112565b60405180910390fd5b600061084361097a565b90506000610850856110aa565b9050600061085d856110aa565b905061086e83600089858589611124565b8460008088815260200190815260200160002060008973ffffffffffffffffffffffffffffffffffffffff1673ffffffffffffffffffffffffffffffffffffffff16815260200190815260200160002060008282546108cd9190612132565b925050819055508673ffffffffffffffffffffffffffffffffffffffff16600073ffffffffffffffffffffffffffffffffffffffff168473ffffffffffffffffffffffffffffffffffffffff167fc3d58168c5ae7397731d063d5bbf3d657854427343f4c083240f7aacaa2d0f62898960405161094b929190612188565b60405180910390a46109628360008985858961112c565b61097183600089898989611134565b50505050505050565b600033905090565b81518351146109c6576040517f08c379a00000000000000000000000000000000000000000000000000000000081526004016109bd90612223565b60405180910390fd5b600073ffffffffffffffffffffffffffffffffffffffff168473ffffffffffffffffffffffffffffffffffffffff1603610a35576040517f08c379a0000000000000000000000000000000000000000000000000000000008152600401610a2c906122b5565b60405180910390fd5b6000610a3f61097a565b9050610a4f818787878787611124565b60005b8451811015610c00576000858281518110610a7057610a6f612071565b5b602002602001015190506000858381518110610a8f57610a8e612071565b5b60200260200101519050600080600084815260200190815260200160002060008b73ffffffffffffffffffffffffffffffffffffffff1673ffffffffffffffffffffffffffffffffffffffff16815260200190815260200160002054905081811015610b30576040517f08c379a0000000000000000000000000000000000000000000000000000000008152600401610b2790612347565b60405180910390fd5b81810360008085815260200190815260200160002060008c73ffffffffffffffffffffffffffffffffffffffff1673ffffffffffffffffffffffffffffffffffffffff168152602001908152602001600020819055508160008085815260200190815260200160002060008b73ffffffffffffffffffffffffffffffffffffffff1673ffffffffffffffffffffffffffffffffffffffff1681526020019081526020016000206000828254610be59190612132565b9250508190555050505080610bf990611f05565b9050610a52565b508473ffffffffffffffffffffffffffffffffffffffff168673ffffffffffffffffffffffffffffffffffffffff168273ffffffffffffffffffffffffffffffffffffffff167f4a39dc06d4c0dbc64b70af90fd698a233a518aa5d07e595d983b8c0526c8f7fb8787604051610c77929190612367565b60405180910390a4610c8d81878787878761112c565b610c9b81878787878761130b565b505050505050565b8173ffffffffffffffffffffffffffffffffffffffff168373ffffffffffffffffffffffffffffffffffffffff1603610d11576040517f08c379a0000000000000000000000000000000000000000000000000000000008152600401610d0890612410565b60405180910390fd5b80600160008573ffffffffffffffffffffffffffffffffffffffff1673ffffffffffffffffffffffffffffffffffffffff16815260200190815260200160002060008473ffffffffffffffffffffffffffffffffffffffff1673ffffffffffffffffffffffffffffffffffffffff16815260200190815260200160002060006101000a81548160ff0219169083151502179055508173ffffffffffffffffffffffffffffffffffffffff168373ffffffffffffffffffffffffffffffffffffffff167f17307eab39ab6107e8899845ad3d59bd9653f200f220920489ca2b5937696c3183604051610e0291906116b7565b60405180910390a3505050565b600073ffffffffffffffffffffffffffffffffffffffff168473ffffffffffffffffffffffffffffffffffffffff1603610e7e576040517f08c379a0000000000000000000000000000000000000000000000000000000008152600401610e75906122b5565b60405180910390fd5b6000610e8861097a565b90506000610e95856110aa565b90506000610ea2856110aa565b9050610eb2838989858589611124565b600080600088815260200190815260200160002060008a73ffffffffffffffffffffffffffffffffffffffff1673ffffffffffffffffffffffffffffffffffffffff16815260200190815260200160002054905085811015610f49576040517f08c379a0000000000000000000000000000000000000000000000000000000008152600401610f4090612347565b60405180910390fd5b85810360008089815260200190815260200160002060008b73ffffffffffffffffffffffffffffffffffffffff1673ffffffffffffffffffffffffffffffffffffffff168152602001908152602001600020819055508560008089815260200190815260200160002060008a73ffffffffffffffffffffffffffffffffffffffff1673ffffffffffffffffffffffffffffffffffffffff1681526020019081526020016000206000828254610ffe9190612132565b925050819055508773ffffffffffffffffffffffffffffffffffffffff168973ffffffffffffffffffffffffffffffffffffffff168573ffffffffffffffffffffffffffffffffffffffff167fc3d58168c5ae7397731d063d5bbf3d657854427343f4c083240f7aacaa2d0f628a8a60405161107b929190612188565b60405180910390a4611091848a8a86868a61112c565b61109f848a8a8a8a8a611134565b505050505050505050565b60606000600167ffffffffffffffff8111156110c9576110c86117bf565b5b6040519080825280602002602001820160405280156110f75781602001602082028036833780820191505090505b509050828160008151811061110f5761110e612071565b5b60200260200101818152505080915050919050565b505050505050565b505050505050565b6111538473ffffffffffffffffffffffffffffffffffffffff166114e2565b15611303578373ffffffffffffffffffffffffffffffffffffffff1663f23a6e6187878686866040518663ffffffff1660e01b8152600401611199959493929190612494565b6020604051808303816000875af19250505080156111d557506040513d601f19601f820116820180604052508101906111d29190612503565b60015b61127a576111e161253d565b806308c379a00361123d57506111f561255f565b80611200575061123f565b806040517f08c379a00000000000000000000000000000000000000000000000000000000081526004016112349190611798565b60405180910390fd5b505b6040517f08c379a000000000000000000000000000000000000000000000000000000000815260040161127190612661565b60405180910390fd5b63f23a6e6160e01b7bffffffffffffffffffffffffffffffffffffffffffffffffffffffff1916817bffffffffffffffffffffffffffffffffffffffffffffffffffffffff191614611301576040517f08c379a00000000000000000000000000000000000000000000000000000000081526004016112f8906126f3565b60405180910390fd5b505b505050505050565b61132a8473ffffffffffffffffffffffffffffffffffffffff166114e2565b156114da578373ffffffffffffffffffffffffffffffffffffffff1663bc197c8187878686866040518663ffffffff1660e01b8152600401611370959493929190612713565b6020604051808303816000875af19250505080156113ac57506040513d601f19601f820116820180604052508101906113a99190612503565b60015b611451576113b861253d565b806308c379a00361141457506113cc61255f565b806113d75750611416565b806040517f08c379a000000000000000000000000000000000000000000000000000000000815260040161140b9190611798565b60405180910390fd5b505b6040517f08c379a000000000000000000000000000000000000000000000000000000000815260040161144890612661565b60405180910390fd5b63bc197c8160e01b7bffffffffffffffffffffffffffffffffffffffffffffffffffffffff1916817bffffffffffffffffffffffffffffffffffffffffffffffffffffffff1916146114d8576040517f08c379a00000000000000000000000000000000000000000000000000000000081526004016114cf906126f3565b60405180910390fd5b505b505050505050565b6000808273ffffffffffffffffffffffffffffffffffffffff163b119050919050565b6000604051905090565b600080fd5b600080fd5b600073ffffffffffffffffffffffffffffffffffffffff82169050919050565b600061154482611519565b9050919050565b61155481611539565b811461155f57600080fd5b50565b6000813590506115718161154b565b92915050565b6000819050919050565b61158a81611577565b811461159557600080fd5b50565b6000813590506115a781611581565b92915050565b600080604083850312156115c4576115c361150f565b5b60006115d285828601611562565b92505060206115e385828601611598565b9150509250929050565b6115f681611577565b82525050565b600060208201905061161160008301846115ed565b92915050565b60007fffffffff0000000000000000000000000000000000000000000000000000000082169050919050565b61164c81611617565b811461165757600080fd5b50565b60008135905061166981611643565b92915050565b6000602082840312156116855761168461150f565b5b60006116938482850161165a565b91505092915050565b60008115159050919050565b6116b18161169c565b82525050565b60006020820190506116cc60008301846116a8565b92915050565b6000602082840312156116e8576116e761150f565b5b60006116f684828501611598565b91505092915050565b600081519050919050565b600082825260208201905092915050565b60005b8381101561173957808201518184015260208101905061171e565b83811115611748576000848401525b50505050565b6000601f19601f8301169050919050565b600061176a826116ff565b611774818561170a565b935061178481856020860161171b565b61178d8161174e565b840191505092915050565b600060208201905081810360008301526117b2818461175f565b905092915050565b600080fd5b7f4e487b7100000000000000000000000000000000000000000000000000000000600052604160045260246000fd5b6117f78261174e565b810181811067ffffffffffffffff82111715611816576118156117bf565b5b80604052505050565b6000611829611505565b905061183582826117ee565b919050565b600067ffffffffffffffff821115611855576118546117bf565b5b602082029050602081019050919050565b600080fd5b600061187e6118798461183a565b61181f565b905080838252602082019050602084028301858111156118a1576118a0611866565b5b835b818110156118ca57806118b68882611598565b8452602084019350506020810190506118a3565b5050509392505050565b600082601f8301126118e9576118e86117ba565b5b81356118f984826020860161186b565b91505092915050565b600080fd5b600067ffffffffffffffff821115611922576119216117bf565b5b61192b8261174e565b9050602081019050919050565b82818337600083830152505050565b600061195a61195584611907565b61181f565b90508281526020810184848401111561197657611975611902565b5b611981848285611938565b509392505050565b600082601f83011261199e5761199d6117ba565b5b81356119ae848260208601611947565b91505092915050565b600080600080600060a086880312156119d3576119d261150f565b5b60006119e188828901611562565b95505060206119f288828901611562565b945050604086013567ffffffffffffffff811115611a1357611a12611514565b5b611a1f888289016118d4565b935050606086013567ffffffffffffffff811115611a4057611a3f611514565b5b611a4c888289016118d4565b925050608086013567ffffffffffffffff811115611a6d57611a6c611514565b5b611a7988828901611989565b9150509295509295909350565b600067ffffffffffffffff821115611aa157611aa06117bf565b5b602082029050602081019050919050565b6000611ac5611ac084611a86565b61181f565b90508083825260208201905060208402830185811115611ae857611ae7611866565b5b835b81811015611b115780611afd8882611562565b845260208401935050602081019050611aea565b5050509392505050565b600082601f830112611b3057611b2f6117ba565b5b8135611b40848260208601611ab2565b91505092915050565b60008060408385031215611b6057611b5f61150f565b5b600083013567ffffffffffffffff811115611b7e57611b7d611514565b5b611b8a85828601611b1b565b925050602083013567ffffffffffffffff811115611bab57611baa611514565b5b611bb7858286016118d4565b9150509250929050565b600081519050919050565b600082825260208201905092915050565b6000819050602082019050919050565b611bf681611577565b82525050565b6000611c088383611bed565b60208301905092915050565b6000602082019050919050565b6000611c2c82611bc1565b611c368185611bcc565b9350611c4183611bdd565b8060005b83811015611c72578151611c598882611bfc565b9750611c6483611c14565b925050600181019050611c45565b5085935050505092915050565b60006020820190508181036000830152611c998184611c21565b905092915050565b611caa8161169c565b8114611cb557600080fd5b50565b600081359050611cc781611ca1565b92915050565b60008060408385031215611ce457611ce361150f565b5b6000611cf285828601611562565b9250506020611d0385828601611cb8565b9150509250929050565b60008060408385031215611d2457611d2361150f565b5b6000611d3285828601611562565b9250506020611d4385828601611562565b9150509250929050565b600080600080600060a08688031215611d6957611d6861150f565b5b6000611d7788828901611562565b9550506020611d8888828901611562565b9450506040611d9988828901611598565b9350506060611daa88828901611598565b925050608086013567ffffffffffffffff811115611dcb57611dca611514565b5b611dd788828901611989565b9150509295509295909350565b7f455243313135353a2061646472657373207a65726f206973206e6f742061207660008201527f616c6964206f776e657200000000000000000000000000000000000000000000602082015250565b6000611e40602a8361170a565b9150611e4b82611de4565b604082019050919050565b60006020820190508181036000830152611e6f81611e33565b9050919050565b7f4e487b7100000000000000000000000000000000000000000000000000000000600052602260045260246000fd5b60006002820490506001821680611ebd57607f821691505b602082108103611ed057611ecf611e76565b5b50919050565b7f4e487b7100000000000000000000000000000000000000000000000000000000600052601160045260246000fd5b6000611f1082611577565b91507fffffffffffffffffffffffffffffffffffffffffffffffffffffffffffffffff8203611f4257611f41611ed6565b5b600182019050919050565b7f455243313135353a2063616c6c6572206973206e6f7420746f6b656e206f776e60008201527f6572206f7220617070726f766564000000000000000000000000000000000000602082015250565b6000611fa9602e8361170a565b9150611fb482611f4d565b604082019050919050565b60006020820190508181036000830152611fd881611f9c565b9050919050565b7f455243313135353a206163636f756e747320616e6420696473206c656e67746860008201527f206d69736d617463680000000000000000000000000000000000000000000000602082015250565b600061203b60298361170a565b915061204682611fdf565b604082019050919050565b6000602082019050818103600083015261206a8161202e565b9050919050565b7f4e487b7100000000000000000000000000000000000000000000000000000000600052603260045260246000fd5b7f455243313135353a206d696e7420746f20746865207a65726f2061646472657360008201527f7300000000000000000000000000000000000000000000000000000000000000602082015250565b60006120fc60218361170a565b9150612107826120a0565b604082019050919050565b6000602082019050818103600083015261212b816120ef565b9050919050565b600061213d82611577565b915061214883611577565b9250827fffffffffffffffffffffffffffffffffffffffffffffffffffffffffffffffff0382111561217d5761217c611ed6565b5b828201905092915050565b600060408201905061219d60008301856115ed565b6121aa60208301846115ed565b9392505050565b7f455243313135353a2069647320616e6420616d6f756e7473206c656e6774682060008201527f6d69736d61746368000000000000000000000000000000000000000000000000602082015250565b600061220d60288361170a565b9150612218826121b1565b604082019050919050565b6000602082019050818103600083015261223c81612200565b9050919050565b7f455243313135353a207472616e7366657220746f20746865207a65726f20616460008201527f6472657373000000000000000000000000000000000000000000000000000000602082015250565b600061229f60258361170a565b91506122aa82612243565b604082019050919050565b600060208201905081810360008301526122ce81612292565b9050919050565b7f455243313135353a20696e73756666696369656e742062616c616e636520666f60008201527f72207472616e7366657200000000000000000000000000000000000000000000602082015250565b6000612331602a8361170a565b915061233c826122d5565b604082019050919050565b6000602082019050818103600083015261236081612324565b9050919050565b600060408201905081810360008301526123818185611c21565b905081810360208301526123958184611c21565b90509392505050565b7f455243313135353a2073657474696e6720617070726f76616c2073746174757360008201527f20666f722073656c660000000000000000000000000000000000000000000000602082015250565b60006123fa60298361170a565b91506124058261239e565b604082019050919050565b60006020820190508181036000830152612429816123ed565b9050919050565b61243981611539565b82525050565b600081519050919050565b600082825260208201905092915050565b60006124668261243f565b612470818561244a565b935061248081856020860161171b565b6124898161174e565b840191505092915050565b600060a0820190506124a96000830188612430565b6124b66020830187612430565b6124c360408301866115ed565b6124d060608301856115ed565b81810360808301526124e2818461245b565b90509695505050505050565b6000815190506124fd81611643565b92915050565b6000602082840312156125195761251861150f565b5b6000612527848285016124ee565b91505092915050565b60008160e01c9050919050565b600060033d111561255c5760046000803e612559600051612530565b90505b90565b600060443d106125ec57612571611505565b60043d036004823e80513d602482011167ffffffffffffffff821117156125995750506125ec565b808201805167ffffffffffffffff8111156125b757505050506125ec565b80602083010160043d0385018111156125d45750505050506125ec565b6125e3826020018501866117ee565b82955050505050505b90565b7f455243313135353a207472616e7366657220746f206e6f6e2d4552433131353560008201527f526563656976657220696d706c656d656e746572000000000000000000000000602082015250565b600061264b60348361170a565b9150612656826125ef565b604082019050919050565b6000602082019050818103600083015261267a8161263e565b9050919050565b7f455243313135353a204552433131353552656365697665722072656a6563746560008201527f6420746f6b656e73000000000000000000000000000000000000000000000000602082015250565b60006126dd60288361170a565b91506126e882612681565b604082019050919050565b6000602082019050818103600083015261270c816126d0565b9050919050565b600060a0820190506127286000830188612430565b6127356020830187612430565b81810360408301526127478186611c21565b9050818103606083015261275b8185611c21565b9050818103608083015261276f818461245b565b9050969550505050505056fea2646970667358221220ea39a2a5f993af4cd589bb08268b4cbe4d7f5727c78ce388e40de234f834843c64736f6c634300080d0033",
  "immutableReferences": {},
  "source": "\npragma solidity ^0.8.0;\n\nimport \"@openzeppelin/contracts/token/ERC1155/ERC1155.sol\";\n\ncontract Ownerships is ERC1155 {\n    constructor() ERC1155(\"\") {}\n    uint id = 0;\n\n    function mint() public {\n        id++;\n        _mint(msg.sender, id, 1, \"\");\n    }\n}",
  "sourcePath": "/Users/martinsuarez/Documents/Debita V1/contracts/NFT.sol",
  "compiler": {
    "name": "solc",
    "version": "0.8.13+commit.abaa5c0e.Emscripten.clang"
  },
  "schemaVersion": "3.4.7",
  "updatedAt": "2022-12-27T15:39:55.069Z",
  "networkType": "ethereum",
  "devdoc": {
    "kind": "dev",
    "methods": {
      "balanceOf(address,uint256)": {
        "details": "See {IERC1155-balanceOf}. Requirements: - `account` cannot be the zero address."
      },
      "balanceOfBatch(address[],uint256[])": {
        "details": "See {IERC1155-balanceOfBatch}. Requirements: - `accounts` and `ids` must have the same length."
      },
      "isApprovedForAll(address,address)": {
        "details": "See {IERC1155-isApprovedForAll}."
      },
      "safeBatchTransferFrom(address,address,uint256[],uint256[],bytes)": {
        "details": "See {IERC1155-safeBatchTransferFrom}."
      },
      "safeTransferFrom(address,address,uint256,uint256,bytes)": {
        "details": "See {IERC1155-safeTransferFrom}."
      },
      "setApprovalForAll(address,bool)": {
        "details": "See {IERC1155-setApprovalForAll}."
      },
      "supportsInterface(bytes4)": {
        "details": "See {IERC165-supportsInterface}."
      },
      "uri(uint256)": {
        "details": "See {IERC1155MetadataURI-uri}. This implementation returns the same URI for *all* token types. It relies on the token type ID substitution mechanism https://eips.ethereum.org/EIPS/eip-1155#metadata[defined in the EIP]. Clients calling this function must replace the `\\{id\\}` substring with the actual token type ID."
      }
    },
    "version": 1
  },
  "userdoc": {
    "kind": "user",
    "methods": {},
    "version": 1
  }
}